{
  "_format": "hh-sol-artifact-1",
  "contractName": "DrinkBoba",
  "sourceName": "contracts/DrinkBoba.sol",
  "abi": [
    {
      "inputs": [],
      "stateMutability": "nonpayable",
      "type": "constructor"
    },
    {
      "anonymous": false,
      "inputs": [
        {
          "indexed": true,
          "internalType": "address",
          "name": "owner",
          "type": "address"
        },
        {
          "indexed": true,
          "internalType": "address",
          "name": "spender",
          "type": "address"
        },
        {
          "indexed": false,
          "internalType": "uint256",
          "name": "value",
          "type": "uint256"
        }
      ],
      "name": "Approval",
      "type": "event"
    },
    {
      "anonymous": false,
      "inputs": [
        {
          "indexed": true,
          "internalType": "address",
          "name": "previousOwner",
          "type": "address"
        },
        {
          "indexed": true,
          "internalType": "address",
          "name": "newOwner",
          "type": "address"
        }
      ],
      "name": "OwnershipTransferred",
      "type": "event"
    },
    {
      "anonymous": false,
      "inputs": [
        {
          "indexed": true,
          "internalType": "address",
          "name": "from",
          "type": "address"
        },
        {
          "indexed": true,
          "internalType": "address",
          "name": "to",
          "type": "address"
        },
        {
          "indexed": false,
          "internalType": "uint256",
          "name": "value",
          "type": "uint256"
        }
      ],
      "name": "Transfer",
      "type": "event"
    },
    {
      "inputs": [],
      "name": "BOBA_PAYOUT",
      "outputs": [
        {
          "internalType": "uint256",
          "name": "",
          "type": "uint256"
        }
      ],
      "stateMutability": "view",
      "type": "function"
    },
    {
      "inputs": [],
      "name": "BTEA_REDEMPTION_AMOUNT",
      "outputs": [
        {
          "internalType": "uint256",
          "name": "",
          "type": "uint256"
        }
      ],
      "stateMutability": "view",
      "type": "function"
    },
    {
      "inputs": [],
      "name": "CONTRACT_APPROVAL_AMOUNT",
      "outputs": [
        {
          "internalType": "uint256",
          "name": "",
          "type": "uint256"
        }
      ],
      "stateMutability": "view",
      "type": "function"
    },
    {
      "inputs": [
        {
          "internalType": "address",
          "name": "owner",
          "type": "address"
        },
        {
          "internalType": "address",
          "name": "spender",
          "type": "address"
        }
      ],
      "name": "allowance",
      "outputs": [
        {
          "internalType": "uint256",
          "name": "",
          "type": "uint256"
        }
      ],
      "stateMutability": "view",
      "type": "function"
    },
    {
      "inputs": [
        {
          "internalType": "address",
          "name": "spender",
          "type": "address"
        },
        {
          "internalType": "uint256",
          "name": "amount",
          "type": "uint256"
        }
      ],
      "name": "approve",
      "outputs": [
        {
          "internalType": "bool",
          "name": "",
          "type": "bool"
        }
      ],
      "stateMutability": "nonpayable",
      "type": "function"
    },
    {
      "inputs": [
        {
          "internalType": "address",
          "name": "account",
          "type": "address"
        }
      ],
      "name": "balanceOf",
      "outputs": [
        {
          "internalType": "uint256",
          "name": "",
          "type": "uint256"
        }
      ],
      "stateMutability": "view",
      "type": "function"
    },
    {
      "inputs": [],
      "name": "decimals",
      "outputs": [
        {
          "internalType": "uint8",
          "name": "",
          "type": "uint8"
        }
      ],
      "stateMutability": "view",
      "type": "function"
    },
    {
      "inputs": [
        {
          "internalType": "address",
          "name": "spender",
          "type": "address"
        },
        {
          "internalType": "uint256",
          "name": "subtractedValue",
          "type": "uint256"
        }
      ],
      "name": "decreaseAllowance",
      "outputs": [
        {
          "internalType": "bool",
          "name": "",
          "type": "bool"
        }
      ],
      "stateMutability": "nonpayable",
      "type": "function"
    },
    {
      "inputs": [],
      "name": "getUserBobaCount",
      "outputs": [
        {
          "internalType": "uint256",
          "name": "",
          "type": "uint256"
        }
      ],
      "stateMutability": "view",
      "type": "function"
    },
    {
      "inputs": [
        {
          "internalType": "address",
          "name": "spender",
          "type": "address"
        },
        {
          "internalType": "uint256",
          "name": "addedValue",
          "type": "uint256"
        }
      ],
      "name": "increaseAllowance",
      "outputs": [
        {
          "internalType": "bool",
          "name": "",
          "type": "bool"
        }
      ],
      "stateMutability": "nonpayable",
      "type": "function"
    },
    {
      "inputs": [],
      "name": "incrementBobaCount",
      "outputs": [],
      "stateMutability": "nonpayable",
      "type": "function"
    },
    {
      "inputs": [],
      "name": "issueMoreBobaTea",
      "outputs": [],
      "stateMutability": "nonpayable",
      "type": "function"
    },
    {
      "inputs": [
        {
          "internalType": "address",
          "name": "",
          "type": "address"
        }
      ],
      "name": "lockTime",
      "outputs": [
        {
          "internalType": "uint256",
          "name": "",
          "type": "uint256"
        }
      ],
      "stateMutability": "view",
      "type": "function"
    },
    {
      "inputs": [],
      "name": "name",
      "outputs": [
        {
          "internalType": "string",
          "name": "",
          "type": "string"
        }
      ],
      "stateMutability": "view",
      "type": "function"
    },
    {
      "inputs": [],
      "name": "owner",
      "outputs": [
        {
          "internalType": "address",
          "name": "",
          "type": "address"
        }
      ],
      "stateMutability": "view",
      "type": "function"
    },
    {
      "inputs": [],
      "name": "redeemBobaTeaForBobaMainnet",
      "outputs": [],
      "stateMutability": "payable",
      "type": "function"
    },
    {
      "inputs": [],
      "name": "registerUser",
      "outputs": [],
      "stateMutability": "payable",
      "type": "function"
    },
    {
      "inputs": [],
      "name": "renounceOwnership",
      "outputs": [],
      "stateMutability": "nonpayable",
      "type": "function"
    },
    {
      "inputs": [],
      "name": "symbol",
      "outputs": [
        {
          "internalType": "string",
          "name": "",
          "type": "string"
        }
      ],
      "stateMutability": "view",
      "type": "function"
    },
    {
      "inputs": [],
      "name": "totalSupply",
      "outputs": [
        {
          "internalType": "uint256",
          "name": "",
          "type": "uint256"
        }
      ],
      "stateMutability": "view",
      "type": "function"
    },
    {
      "inputs": [
        {
          "internalType": "address",
          "name": "to",
          "type": "address"
        },
        {
          "internalType": "uint256",
          "name": "amount",
          "type": "uint256"
        }
      ],
      "name": "transfer",
      "outputs": [
        {
          "internalType": "bool",
          "name": "",
          "type": "bool"
        }
      ],
      "stateMutability": "nonpayable",
      "type": "function"
    },
    {
      "inputs": [
        {
          "internalType": "address",
          "name": "from",
          "type": "address"
        },
        {
          "internalType": "address",
          "name": "to",
          "type": "address"
        },
        {
          "internalType": "uint256",
          "name": "amount",
          "type": "uint256"
        }
      ],
      "name": "transferFrom",
      "outputs": [
        {
          "internalType": "bool",
          "name": "",
          "type": "bool"
        }
      ],
      "stateMutability": "nonpayable",
      "type": "function"
    },
    {
      "inputs": [
        {
          "internalType": "address",
          "name": "newOwner",
          "type": "address"
        }
      ],
      "name": "transferOwnership",
      "outputs": [],
      "stateMutability": "nonpayable",
      "type": "function"
    },
    {
      "inputs": [
        {
          "internalType": "address",
          "name": "",
          "type": "address"
        }
      ],
      "name": "userBobaLog",
      "outputs": [
        {
          "internalType": "uint256",
          "name": "",
          "type": "uint256"
        }
      ],
      "stateMutability": "view",
      "type": "function"
    },
    {
      "inputs": [
        {
          "internalType": "uint256",
          "name": "",
          "type": "uint256"
        }
      ],
      "name": "usersPlaying",
      "outputs": [
        {
          "internalType": "address",
          "name": "",
          "type": "address"
        }
      ],
      "stateMutability": "view",
      "type": "function"
    },
    {
      "stateMutability": "payable",
      "type": "receive"
    }
  ],
  "bytecode": "0x608060405262278d006009553480156200001857600080fd5b506040518060400160405280600781526020017f426f6261546561000000000000000000000000000000000000000000000000008152506040518060400160405280600781526020017f424f42415445410000000000000000000000000000000000000000000000000081525081600390805190602001906200009d929190620001ad565b508060049080519060200190620000b6929190620001ad565b505050620000d9620000cd620000df60201b60201c565b620000e760201b60201c565b620002c2565b600033905090565b6000600560009054906101000a900473ffffffffffffffffffffffffffffffffffffffff16905081600560006101000a81548173ffffffffffffffffffffffffffffffffffffffff021916908373ffffffffffffffffffffffffffffffffffffffff1602179055508173ffffffffffffffffffffffffffffffffffffffff168173ffffffffffffffffffffffffffffffffffffffff167f8be0079c531659141344cd1fd0a4f28419497f9722a3daafe3b4186f6b6457e060405160405180910390a35050565b828054620001bb906200025d565b90600052602060002090601f016020900481019282620001df57600085556200022b565b82601f10620001fa57805160ff19168380011785556200022b565b828001600101855582156200022b579182015b828111156200022a5782518255916020019190600101906200020d565b5b5090506200023a91906200023e565b5090565b5b80821115620002595760008160009055506001016200023f565b5090565b600060028204905060018216806200027657607f821691505b602082108114156200028d576200028c62000293565b5b50919050565b7f4e487b7100000000000000000000000000000000000000000000000000000000600052602260045260246000fd5b61252980620002d26000396000f3fe60806040526004361061016a5760003560e01c8063715018a6116100d1578063a9059cbb1161008a578063d984523411610064578063d984523414610535578063dd62ed3e1461054c578063f2fde38b14610589578063fcdca8c3146105b257610171565b8063a9059cbb146104b6578063ae883ea6146104f3578063cbcd9c8f1461050a57610171565b8063715018a6146103a45780637a92e165146103bb5780638da5cb5b146103e657806395d89b4114610411578063a457c2d71461043c578063a4beda631461047957610171565b8063313ce56711610123578063313ce567146102ae57806339509351146102d9578063487a4ba8146103165780634d3820eb1461032057806363b2c4841461032a57806370a082311461036757610171565b806306fdde0314610176578063095ea7b3146101a15780630ea613b3146101de57806313dd13d01461020957806318160ddd1461024657806323b872dd1461027157610171565b3661017157005b600080fd5b34801561018257600080fd5b5061018b6105dd565b6040516101989190611d24565b60405180910390f35b3480156101ad57600080fd5b506101c860048036038101906101c39190611a4d565b61066f565b6040516101d59190611d09565b60405180910390f35b3480156101ea57600080fd5b506101f3610692565b6040516102009190611ee6565b60405180910390f35b34801561021557600080fd5b50610230600480360381019061022b9190611999565b6106a0565b60405161023d9190611ee6565b60405180910390f35b34801561025257600080fd5b5061025b6106b8565b6040516102689190611ee6565b60405180910390f35b34801561027d57600080fd5b50610298600480360381019061029391906119fe565b6106c2565b6040516102a59190611d09565b60405180910390f35b3480156102ba57600080fd5b506102c36106f1565b6040516102d09190611f01565b60405180910390f35b3480156102e557600080fd5b5061030060048036038101906102fb9190611a4d565b6106fa565b60405161030d9190611d09565b60405180910390f35b61031e610731565b005b6103286108b1565b005b34801561033657600080fd5b50610351600480360381019061034c9190611a89565b61092b565b60405161035e9190611cee565b60405180910390f35b34801561037357600080fd5b5061038e60048036038101906103899190611999565b61096a565b60405161039b9190611ee6565b60405180910390f35b3480156103b057600080fd5b506103b96109b2565b005b3480156103c757600080fd5b506103d0610a3a565b6040516103dd9190611ee6565b60405180910390f35b3480156103f257600080fd5b506103fb610b88565b6040516104089190611cee565b60405180910390f35b34801561041d57600080fd5b50610426610bb2565b6040516104339190611d24565b60405180910390f35b34801561044857600080fd5b50610463600480360381019061045e9190611a4d565b610c44565b6040516104709190611d09565b60405180910390f35b34801561048557600080fd5b506104a0600480360381019061049b9190611999565b610cbb565b6040516104ad9190611ee6565b60405180910390f35b3480156104c257600080fd5b506104dd60048036038101906104d89190611a4d565b610cd3565b6040516104ea9190611d09565b60405180910390f35b3480156104ff57600080fd5b50610508610cf6565b005b34801561051657600080fd5b5061051f610e65565b60405161052c9190611ee6565b60405180910390f35b34801561054157600080fd5b5061054a610e71565b005b34801561055857600080fd5b50610573600480360381019061056e91906119c2565b610efc565b6040516105809190611ee6565b60405180910390f35b34801561059557600080fd5b506105b060048036038101906105ab9190611999565b610f83565b005b3480156105be57600080fd5b506105c761107b565b6040516105d49190611ee6565b60405180910390f35b6060600380546105ec9061204a565b80601f01602080910402602001604051908101604052809291908181526020018280546106189061204a565b80156106655780601f1061063a57610100808354040283529160200191610665565b820191906000526020600020905b81548152906001019060200180831161064857829003601f168201915b5050505050905090565b60008061067a611088565b9050610687818585611090565b600191505092915050565b69152d02c7e14af680000081565b60066020528060005260406000206000915090505481565b6000600254905090565b6000806106cd611088565b90506106da85828561125b565b6106e58585856112e7565b60019150509392505050565b60006012905090565b600080610705611088565b90506107268185856107178589610efc565b6107219190611f38565b611090565b600191505092915050565b6000805b6008805490508110156107f2573373ffffffffffffffffffffffffffffffffffffffff1660088281548110610793577f4e487b7100000000000000000000000000000000000000000000000000000000600052603260045260246000fd5b9060005260206000200160009054906101000a900473ffffffffffffffffffffffffffffffffffffffff1673ffffffffffffffffffffffffffffffffffffffff1614156107df57600191505b80806107ea9061207c565b915050610735565b5080610833576040517f08c379a000000000000000000000000000000000000000000000000000000000815260040161082a90611e06565b60405180910390fd5b6802b5e3af16b18800006108463361096a565b106108ae5761085e336802b5e3af16b1880000611568565b3373ffffffffffffffffffffffffffffffffffffffff166108fc67016345785d8a00009081150290604051600060405180830381858888f193505050501580156108ac573d6000803e3d6000fd5b505b50565b6108c53069152d02c7e14af680000061066f565b506008339080600181540180825580915050600190039060005260206000200160009091909190916101000a81548173ffffffffffffffffffffffffffffffffffffffff021916908373ffffffffffffffffffffffffffffffffffffffff160217905550565b6008818154811061093b57600080fd5b906000526020600020016000915054906101000a900473ffffffffffffffffffffffffffffffffffffffff1681565b60008060008373ffffffffffffffffffffffffffffffffffffffff1673ffffffffffffffffffffffffffffffffffffffff168152602001908152602001600020549050919050565b6109ba611088565b73ffffffffffffffffffffffffffffffffffffffff166109d8610b88565b73ffffffffffffffffffffffffffffffffffffffff1614610a2e576040517f08c379a0000000000000000000000000000000000000000000000000000000008152600401610a2590611e26565b60405180910390fd5b610a38600061173f565b565b6000806000905060005b600880549050811015610b01573373ffffffffffffffffffffffffffffffffffffffff1660088281548110610aa2577f4e487b7100000000000000000000000000000000000000000000000000000000600052603260045260246000fd5b9060005260206000200160009054906101000a900473ffffffffffffffffffffffffffffffffffffffff1673ffffffffffffffffffffffffffffffffffffffff161415610aee57600191505b8080610af99061207c565b915050610a44565b5080610b42576040517f08c379a0000000000000000000000000000000000000000000000000000000008152600401610b3990611e06565b60405180910390fd5b600660003373ffffffffffffffffffffffffffffffffffffffff1673ffffffffffffffffffffffffffffffffffffffff1681526020019081526020016000205491505090565b6000600560009054906101000a900473ffffffffffffffffffffffffffffffffffffffff16905090565b606060048054610bc19061204a565b80601f0160208091040260200160405190810160405280929190818152602001828054610bed9061204a565b8015610c3a5780601f10610c0f57610100808354040283529160200191610c3a565b820191906000526020600020905b815481529060010190602001808311610c1d57829003601f168201915b5050505050905090565b600080610c4f611088565b90506000610c5d8286610efc565b905083811015610ca2576040517f08c379a0000000000000000000000000000000000000000000000000000000008152600401610c9990611ea6565b60405180910390fd5b610caf8286868403611090565b60019250505092915050565b60076020528060005260406000206000915090505481565b600080610cde611088565b9050610ceb8185856112e7565b600191505092915050565b6000805b600880549050811015610db7573373ffffffffffffffffffffffffffffffffffffffff1660088281548110610d58577f4e487b7100000000000000000000000000000000000000000000000000000000600052603260045260246000fd5b9060005260206000200160009054906101000a900473ffffffffffffffffffffffffffffffffffffffff1673ffffffffffffffffffffffffffffffffffffffff161415610da457600191505b8080610daf9061207c565b915050610cfa565b5080610df8576040517f08c379a0000000000000000000000000000000000000000000000000000000008152600401610def90611e06565b60405180910390fd5b6001600660003373ffffffffffffffffffffffffffffffffffffffff1673ffffffffffffffffffffffffffffffffffffffff1681526020019081526020016000206000828254610e489190611f38565b92505081905550610e62336802b5e3af16b1880000611805565b50565b67016345785d8a000081565b610e79611088565b73ffffffffffffffffffffffffffffffffffffffff16610e97610b88565b73ffffffffffffffffffffffffffffffffffffffff1614610eed576040517f08c379a0000000000000000000000000000000000000000000000000000000008152600401610ee490611e26565b60405180910390fd5b610efa336202bf20611805565b565b6000600160008473ffffffffffffffffffffffffffffffffffffffff1673ffffffffffffffffffffffffffffffffffffffff16815260200190815260200160002060008373ffffffffffffffffffffffffffffffffffffffff1673ffffffffffffffffffffffffffffffffffffffff16815260200190815260200160002054905092915050565b610f8b611088565b73ffffffffffffffffffffffffffffffffffffffff16610fa9610b88565b73ffffffffffffffffffffffffffffffffffffffff1614610fff576040517f08c379a0000000000000000000000000000000000000000000000000000000008152600401610ff690611e26565b60405180910390fd5b600073ffffffffffffffffffffffffffffffffffffffff168173ffffffffffffffffffffffffffffffffffffffff16141561106f576040517f08c379a000000000000000000000000000000000000000000000000000000000815260040161106690611d86565b60405180910390fd5b6110788161173f565b50565b6802b5e3af16b188000081565b600033905090565b600073ffffffffffffffffffffffffffffffffffffffff168373ffffffffffffffffffffffffffffffffffffffff161415611100576040517f08c379a00000000000000000000000000000000000000000000000000000000081526004016110f790611e86565b60405180910390fd5b600073ffffffffffffffffffffffffffffffffffffffff168273ffffffffffffffffffffffffffffffffffffffff161415611170576040517f08c379a000000000000000000000000000000000000000000000000000000000815260040161116790611da6565b60405180910390fd5b80600160008573ffffffffffffffffffffffffffffffffffffffff1673ffffffffffffffffffffffffffffffffffffffff16815260200190815260200160002060008473ffffffffffffffffffffffffffffffffffffffff1673ffffffffffffffffffffffffffffffffffffffff168152602001908152602001600020819055508173ffffffffffffffffffffffffffffffffffffffff168373ffffffffffffffffffffffffffffffffffffffff167f8c5be1e5ebec7d5bd14f71427d1e84f3dd0314c0f7b2291e5b200ac8c7c3b9258360405161124e9190611ee6565b60405180910390a3505050565b60006112678484610efc565b90507fffffffffffffffffffffffffffffffffffffffffffffffffffffffffffffffff81146112e157818110156112d3576040517f08c379a00000000000000000000000000000000000000000000000000000000081526004016112ca90611dc6565b60405180910390fd5b6112e08484848403611090565b5b50505050565b600073ffffffffffffffffffffffffffffffffffffffff168373ffffffffffffffffffffffffffffffffffffffff161415611357576040517f08c379a000000000000000000000000000000000000000000000000000000000815260040161134e90611e66565b60405180910390fd5b600073ffffffffffffffffffffffffffffffffffffffff168273ffffffffffffffffffffffffffffffffffffffff1614156113c7576040517f08c379a00000000000000000000000000000000000000000000000000000000081526004016113be90611d46565b60405180910390fd5b6113d2838383611965565b60008060008573ffffffffffffffffffffffffffffffffffffffff1673ffffffffffffffffffffffffffffffffffffffff16815260200190815260200160002054905081811015611458576040517f08c379a000000000000000000000000000000000000000000000000000000000815260040161144f90611de6565b60405180910390fd5b8181036000808673ffffffffffffffffffffffffffffffffffffffff1673ffffffffffffffffffffffffffffffffffffffff16815260200190815260200160002081905550816000808573ffffffffffffffffffffffffffffffffffffffff1673ffffffffffffffffffffffffffffffffffffffff16815260200190815260200160002060008282546114eb9190611f38565b925050819055508273ffffffffffffffffffffffffffffffffffffffff168473ffffffffffffffffffffffffffffffffffffffff167fddf252ad1be2c89b69c2b068fc378daa952ba7f163c4a11628f55a4df523b3ef8460405161154f9190611ee6565b60405180910390a361156284848461196a565b50505050565b600073ffffffffffffffffffffffffffffffffffffffff168273ffffffffffffffffffffffffffffffffffffffff1614156115d8576040517f08c379a00000000000000000000000000000000000000000000000000000000081526004016115cf90611e46565b60405180910390fd5b6115e482600083611965565b60008060008473ffffffffffffffffffffffffffffffffffffffff1673ffffffffffffffffffffffffffffffffffffffff1681526020019081526020016000205490508181101561166a576040517f08c379a000000000000000000000000000000000000000000000000000000000815260040161166190611d66565b60405180910390fd5b8181036000808573ffffffffffffffffffffffffffffffffffffffff1673ffffffffffffffffffffffffffffffffffffffff1681526020019081526020016000208190555081600260008282546116c19190611f8e565b92505081905550600073ffffffffffffffffffffffffffffffffffffffff168373ffffffffffffffffffffffffffffffffffffffff167fddf252ad1be2c89b69c2b068fc378daa952ba7f163c4a11628f55a4df523b3ef846040516117269190611ee6565b60405180910390a361173a8360008461196a565b505050565b6000600560009054906101000a900473ffffffffffffffffffffffffffffffffffffffff16905081600560006101000a81548173ffffffffffffffffffffffffffffffffffffffff021916908373ffffffffffffffffffffffffffffffffffffffff1602179055508173ffffffffffffffffffffffffffffffffffffffff168173ffffffffffffffffffffffffffffffffffffffff167f8be0079c531659141344cd1fd0a4f28419497f9722a3daafe3b4186f6b6457e060405160405180910390a35050565b600073ffffffffffffffffffffffffffffffffffffffff168273ffffffffffffffffffffffffffffffffffffffff161415611875576040517f08c379a000000000000000000000000000000000000000000000000000000000815260040161186c90611ec6565b60405180910390fd5b61188160008383611965565b80600260008282546118939190611f38565b92505081905550806000808473ffffffffffffffffffffffffffffffffffffffff1673ffffffffffffffffffffffffffffffffffffffff16815260200190815260200160002060008282546118e89190611f38565b925050819055508173ffffffffffffffffffffffffffffffffffffffff16600073ffffffffffffffffffffffffffffffffffffffff167fddf252ad1be2c89b69c2b068fc378daa952ba7f163c4a11628f55a4df523b3ef8360405161194d9190611ee6565b60405180910390a36119616000838361196a565b5050565b505050565b505050565b60008135905061197e816124c5565b92915050565b600081359050611993816124dc565b92915050565b6000602082840312156119ab57600080fd5b60006119b98482850161196f565b91505092915050565b600080604083850312156119d557600080fd5b60006119e38582860161196f565b92505060206119f48582860161196f565b9150509250929050565b600080600060608486031215611a1357600080fd5b6000611a218682870161196f565b9350506020611a328682870161196f565b9250506040611a4386828701611984565b9150509250925092565b60008060408385031215611a6057600080fd5b6000611a6e8582860161196f565b9250506020611a7f85828601611984565b9150509250929050565b600060208284031215611a9b57600080fd5b6000611aa984828501611984565b91505092915050565b611abb81611fc2565b82525050565b611aca81611fd4565b82525050565b6000611adb82611f1c565b611ae58185611f27565b9350611af5818560208601612017565b611afe81612123565b840191505092915050565b6000611b16602383611f27565b9150611b2182612134565b604082019050919050565b6000611b39602283611f27565b9150611b4482612183565b604082019050919050565b6000611b5c602683611f27565b9150611b67826121d2565b604082019050919050565b6000611b7f602283611f27565b9150611b8a82612221565b604082019050919050565b6000611ba2601d83611f27565b9150611bad82612270565b602082019050919050565b6000611bc5602683611f27565b9150611bd082612299565b604082019050919050565b6000611be8603583611f27565b9150611bf3826122e8565b604082019050919050565b6000611c0b602083611f27565b9150611c1682612337565b602082019050919050565b6000611c2e602183611f27565b9150611c3982612360565b604082019050919050565b6000611c51602583611f27565b9150611c5c826123af565b604082019050919050565b6000611c74602483611f27565b9150611c7f826123fe565b604082019050919050565b6000611c97602583611f27565b9150611ca28261244d565b604082019050919050565b6000611cba601f83611f27565b9150611cc58261249c565b602082019050919050565b611cd981612000565b82525050565b611ce88161200a565b82525050565b6000602082019050611d036000830184611ab2565b92915050565b6000602082019050611d1e6000830184611ac1565b92915050565b60006020820190508181036000830152611d3e8184611ad0565b905092915050565b60006020820190508181036000830152611d5f81611b09565b9050919050565b60006020820190508181036000830152611d7f81611b2c565b9050919050565b60006020820190508181036000830152611d9f81611b4f565b9050919050565b60006020820190508181036000830152611dbf81611b72565b9050919050565b60006020820190508181036000830152611ddf81611b95565b9050919050565b60006020820190508181036000830152611dff81611bb8565b9050919050565b60006020820190508181036000830152611e1f81611bdb565b9050919050565b60006020820190508181036000830152611e3f81611bfe565b9050919050565b60006020820190508181036000830152611e5f81611c21565b9050919050565b60006020820190508181036000830152611e7f81611c44565b9050919050565b60006020820190508181036000830152611e9f81611c67565b9050919050565b60006020820190508181036000830152611ebf81611c8a565b9050919050565b60006020820190508181036000830152611edf81611cad565b9050919050565b6000602082019050611efb6000830184611cd0565b92915050565b6000602082019050611f166000830184611cdf565b92915050565b600081519050919050565b600082825260208201905092915050565b6000611f4382612000565b9150611f4e83612000565b9250827fffffffffffffffffffffffffffffffffffffffffffffffffffffffffffffffff03821115611f8357611f826120c5565b5b828201905092915050565b6000611f9982612000565b9150611fa483612000565b925082821015611fb757611fb66120c5565b5b828203905092915050565b6000611fcd82611fe0565b9050919050565b60008115159050919050565b600073ffffffffffffffffffffffffffffffffffffffff82169050919050565b6000819050919050565b600060ff82169050919050565b60005b8381101561203557808201518184015260208101905061201a565b83811115612044576000848401525b50505050565b6000600282049050600182168061206257607f821691505b60208210811415612076576120756120f4565b5b50919050565b600061208782612000565b91507fffffffffffffffffffffffffffffffffffffffffffffffffffffffffffffffff8214156120ba576120b96120c5565b5b600182019050919050565b7f4e487b7100000000000000000000000000000000000000000000000000000000600052601160045260246000fd5b7f4e487b7100000000000000000000000000000000000000000000000000000000600052602260045260246000fd5b6000601f19601f8301169050919050565b7f45524332303a207472616e7366657220746f20746865207a65726f206164647260008201527f6573730000000000000000000000000000000000000000000000000000000000602082015250565b7f45524332303a206275726e20616d6f756e7420657863656564732062616c616e60008201527f6365000000000000000000000000000000000000000000000000000000000000602082015250565b7f4f776e61626c653a206e6577206f776e657220697320746865207a65726f206160008201527f6464726573730000000000000000000000000000000000000000000000000000602082015250565b7f45524332303a20617070726f766520746f20746865207a65726f20616464726560008201527f7373000000000000000000000000000000000000000000000000000000000000602082015250565b7f45524332303a20696e73756666696369656e7420616c6c6f77616e6365000000600082015250565b7f45524332303a207472616e7366657220616d6f756e742065786365656473206260008201527f616c616e63650000000000000000000000000000000000000000000000000000602082015250565b7f596f7520686176656e277420656e746572656420796f757220426f626120546560008201527f6120636f6e73756d7074696f6e206265666f7265210000000000000000000000602082015250565b7f4f776e61626c653a2063616c6c6572206973206e6f7420746865206f776e6572600082015250565b7f45524332303a206275726e2066726f6d20746865207a65726f2061646472657360008201527f7300000000000000000000000000000000000000000000000000000000000000602082015250565b7f45524332303a207472616e736665722066726f6d20746865207a65726f20616460008201527f6472657373000000000000000000000000000000000000000000000000000000602082015250565b7f45524332303a20617070726f76652066726f6d20746865207a65726f2061646460008201527f7265737300000000000000000000000000000000000000000000000000000000602082015250565b7f45524332303a2064656372656173656420616c6c6f77616e63652062656c6f7760008201527f207a65726f000000000000000000000000000000000000000000000000000000602082015250565b7f45524332303a206d696e7420746f20746865207a65726f206164647265737300600082015250565b6124ce81611fc2565b81146124d957600080fd5b50565b6124e581612000565b81146124f057600080fd5b5056fea2646970667358221220f32d7100f58bc95b59ebfe6ea5150066482958170d4c78803430a85917adace364736f6c63430008040033",
  "linkReferences": {},
  "deployedLinkReferences": {}
}