{
  "_format": "hh-sol-artifact-1",
  "contractName": "DrinkBoba",
  "sourceName": "contracts/DrinkBoba.sol",
  "abi": [
    {
      "inputs": [],
      "stateMutability": "nonpayable",
      "type": "constructor"
    },
    {
      "anonymous": false,
      "inputs": [
        {
          "indexed": true,
          "internalType": "address",
          "name": "owner",
          "type": "address"
        },
        {
          "indexed": true,
          "internalType": "address",
          "name": "spender",
          "type": "address"
        },
        {
          "indexed": false,
          "internalType": "uint256",
          "name": "value",
          "type": "uint256"
        }
      ],
      "name": "Approval",
      "type": "event"
    },
    {
      "anonymous": false,
      "inputs": [
        {
          "indexed": true,
          "internalType": "address",
          "name": "previousOwner",
          "type": "address"
        },
        {
          "indexed": true,
          "internalType": "address",
          "name": "newOwner",
          "type": "address"
        }
      ],
      "name": "OwnershipTransferred",
      "type": "event"
    },
    {
      "anonymous": false,
      "inputs": [
        {
          "indexed": true,
          "internalType": "address",
          "name": "from",
          "type": "address"
        },
        {
          "indexed": true,
          "internalType": "address",
          "name": "to",
          "type": "address"
        },
        {
          "indexed": false,
          "internalType": "uint256",
          "name": "value",
          "type": "uint256"
        }
      ],
      "name": "Transfer",
      "type": "event"
    },
    {
      "inputs": [
        {
          "internalType": "address",
          "name": "owner",
          "type": "address"
        },
        {
          "internalType": "address",
          "name": "spender",
          "type": "address"
        }
      ],
      "name": "allowance",
      "outputs": [
        {
          "internalType": "uint256",
          "name": "",
          "type": "uint256"
        }
      ],
      "stateMutability": "view",
      "type": "function"
    },
    {
      "inputs": [
        {
          "internalType": "address",
          "name": "spender",
          "type": "address"
        },
        {
          "internalType": "uint256",
          "name": "amount",
          "type": "uint256"
        }
      ],
      "name": "approve",
      "outputs": [
        {
          "internalType": "bool",
          "name": "",
          "type": "bool"
        }
      ],
      "stateMutability": "nonpayable",
      "type": "function"
    },
    {
      "inputs": [
        {
          "internalType": "address",
          "name": "account",
          "type": "address"
        }
      ],
      "name": "balanceOf",
      "outputs": [
        {
          "internalType": "uint256",
          "name": "",
          "type": "uint256"
        }
      ],
      "stateMutability": "view",
      "type": "function"
    },
    {
      "inputs": [],
      "name": "decimals",
      "outputs": [
        {
          "internalType": "uint8",
          "name": "",
          "type": "uint8"
        }
      ],
      "stateMutability": "view",
      "type": "function"
    },
    {
      "inputs": [
        {
          "internalType": "address",
          "name": "spender",
          "type": "address"
        },
        {
          "internalType": "uint256",
          "name": "subtractedValue",
          "type": "uint256"
        }
      ],
      "name": "decreaseAllowance",
      "outputs": [
        {
          "internalType": "bool",
          "name": "",
          "type": "bool"
        }
      ],
      "stateMutability": "nonpayable",
      "type": "function"
    },
    {
      "inputs": [
        {
          "internalType": "address",
          "name": "spender",
          "type": "address"
        },
        {
          "internalType": "uint256",
          "name": "addedValue",
          "type": "uint256"
        }
      ],
      "name": "increaseAllowance",
      "outputs": [
        {
          "internalType": "bool",
          "name": "",
          "type": "bool"
        }
      ],
      "stateMutability": "nonpayable",
      "type": "function"
    },
    {
      "inputs": [],
      "name": "issueMoreBobaTea",
      "outputs": [],
      "stateMutability": "nonpayable",
      "type": "function"
    },
    {
      "inputs": [],
      "name": "name",
      "outputs": [
        {
          "internalType": "string",
          "name": "",
          "type": "string"
        }
      ],
      "stateMutability": "view",
      "type": "function"
    },
    {
      "inputs": [],
      "name": "owner",
      "outputs": [
        {
          "internalType": "address",
          "name": "",
          "type": "address"
        }
      ],
      "stateMutability": "view",
      "type": "function"
    },
    {
      "inputs": [],
      "name": "registerUser",
      "outputs": [],
      "stateMutability": "nonpayable",
      "type": "function"
    },
    {
      "inputs": [],
      "name": "renounceOwnership",
      "outputs": [],
      "stateMutability": "nonpayable",
      "type": "function"
    },
    {
      "inputs": [],
      "name": "rewardUser",
      "outputs": [],
      "stateMutability": "nonpayable",
      "type": "function"
    },
    {
      "inputs": [],
      "name": "symbol",
      "outputs": [
        {
          "internalType": "string",
          "name": "",
          "type": "string"
        }
      ],
      "stateMutability": "view",
      "type": "function"
    },
    {
      "inputs": [],
      "name": "totalSupply",
      "outputs": [
        {
          "internalType": "uint256",
          "name": "",
          "type": "uint256"
        }
      ],
      "stateMutability": "view",
      "type": "function"
    },
    {
      "inputs": [
        {
          "internalType": "address",
          "name": "to",
          "type": "address"
        },
        {
          "internalType": "uint256",
          "name": "amount",
          "type": "uint256"
        }
      ],
      "name": "transfer",
      "outputs": [
        {
          "internalType": "bool",
          "name": "",
          "type": "bool"
        }
      ],
      "stateMutability": "nonpayable",
      "type": "function"
    },
    {
      "inputs": [
        {
          "internalType": "address",
          "name": "from",
          "type": "address"
        },
        {
          "internalType": "address",
          "name": "to",
          "type": "address"
        },
        {
          "internalType": "uint256",
          "name": "amount",
          "type": "uint256"
        }
      ],
      "name": "transferFrom",
      "outputs": [
        {
          "internalType": "bool",
          "name": "",
          "type": "bool"
        }
      ],
      "stateMutability": "nonpayable",
      "type": "function"
    },
    {
      "inputs": [
        {
          "internalType": "address",
          "name": "newOwner",
          "type": "address"
        }
      ],
      "name": "transferOwnership",
      "outputs": [],
      "stateMutability": "nonpayable",
      "type": "function"
    },
    {
      "inputs": [
        {
          "internalType": "address",
          "name": "",
          "type": "address"
        }
      ],
      "name": "userBobaLog",
      "outputs": [
        {
          "internalType": "bool",
          "name": "drinkBoba",
          "type": "bool"
        }
      ],
      "stateMutability": "view",
      "type": "function"
    },
    {
      "inputs": [
        {
          "internalType": "uint256",
          "name": "",
          "type": "uint256"
        }
      ],
      "name": "usersPlaying",
      "outputs": [
        {
          "internalType": "address",
          "name": "",
          "type": "address"
        }
      ],
      "stateMutability": "view",
      "type": "function"
    }
  ],
  "bytecode": "0x60806040523480156200001157600080fd5b506040518060400160405280600781526020017f426f6261546561000000000000000000000000000000000000000000000000008152506040518060400160405280600781526020017f424f424154454100000000000000000000000000000000000000000000000000815250816003908051906020019062000096929190620001a6565b508060049080519060200190620000af929190620001a6565b505050620000d2620000c6620000d860201b60201c565b620000e060201b60201c565b620002bb565b600033905090565b6000600560009054906101000a900473ffffffffffffffffffffffffffffffffffffffff16905081600560006101000a81548173ffffffffffffffffffffffffffffffffffffffff021916908373ffffffffffffffffffffffffffffffffffffffff1602179055508173ffffffffffffffffffffffffffffffffffffffff168173ffffffffffffffffffffffffffffffffffffffff167f8be0079c531659141344cd1fd0a4f28419497f9722a3daafe3b4186f6b6457e060405160405180910390a35050565b828054620001b49062000256565b90600052602060002090601f016020900481019282620001d8576000855562000224565b82601f10620001f357805160ff191683800117855562000224565b8280016001018555821562000224579182015b828111156200022357825182559160200191906001019062000206565b5b50905062000233919062000237565b5090565b5b808211156200025257600081600090555060010162000238565b5090565b600060028204905060018216806200026f57607f821691505b602082108114156200028657620002856200028c565b5b50919050565b7f4e487b7100000000000000000000000000000000000000000000000000000000600052602260045260246000fd5b611cbf80620002cb6000396000f3fe608060405234801561001057600080fd5b50600436106101215760003560e01c806370a08231116100ad578063a9059cbb11610071578063a9059cbb14610320578063d984523414610350578063dd62ed3e1461035a578063e1004fc71461038a578063f2fde38b1461039457610121565b806370a082311461027a578063715018a6146102aa5780638da5cb5b146102b457806395d89b41146102d2578063a457c2d7146102f057610121565b806323b872dd116100f457806323b872dd146101c2578063313ce567146101f257806339509351146102105780634d3820eb1461024057806363b2c4841461024a57610121565b806306fdde0314610126578063095ea7b31461014457806313dd13d01461017457806318160ddd146101a4575b600080fd5b61012e6103b0565b60405161013b91906115cc565b60405180910390f35b61015e6004803603810190610159919061133b565b610442565b60405161016b91906115b1565b60405180910390f35b61018e60048036038101906101899190611287565b610465565b60405161019b91906115b1565b60405180910390f35b6101ac610490565b6040516101b9919061174e565b60405180910390f35b6101dc60048036038101906101d791906112ec565b61049a565b6040516101e991906115b1565b60405180910390f35b6101fa6104c9565b6040516102079190611769565b60405180910390f35b61022a6004803603810190610225919061133b565b6104d2565b60405161023791906115b1565b60405180910390f35b610248610509565b005b610264600480360381019061025f9190611377565b61056e565b6040516102719190611596565b60405180910390f35b610294600480360381019061028f9190611287565b6105ad565b6040516102a1919061174e565b60405180910390f35b6102b26105f5565b005b6102bc61067d565b6040516102c99190611596565b60405180910390f35b6102da6106a7565b6040516102e791906115cc565b60405180910390f35b61030a6004803603810190610305919061133b565b610739565b60405161031791906115b1565b60405180910390f35b61033a6004803603810190610335919061133b565b6107b0565b60405161034791906115b1565b60405180910390f35b6103586107d3565b005b610374600480360381019061036f91906112b0565b61085e565b604051610381919061174e565b60405180910390f35b6103926108e5565b005b6103ae60048036038101906103a99190611287565b610a55565b005b6060600380546103bf9061187e565b80601f01602080910402602001604051908101604052809291908181526020018280546103eb9061187e565b80156104385780601f1061040d57610100808354040283529160200191610438565b820191906000526020600020905b81548152906001019060200180831161041b57829003601f168201915b5050505050905090565b60008061044d610b4d565b905061045a818585610b55565b600191505092915050565b60066020528060005260406000206000915090508060000160009054906101000a900460ff16905081565b6000600254905090565b6000806104a5610b4d565b90506104b2858285610d20565b6104bd858585610dac565b60019150509392505050565b60006012905090565b6000806104dd610b4d565b90506104fe8185856104ef858961085e565b6104f991906117a0565b610b55565b600191505092915050565b6007339080600181540180825580915050600190039060005260206000200160009091909190916101000a81548173ffffffffffffffffffffffffffffffffffffffff021916908373ffffffffffffffffffffffffffffffffffffffff160217905550565b6007818154811061057e57600080fd5b906000526020600020016000915054906101000a900473ffffffffffffffffffffffffffffffffffffffff1681565b60008060008373ffffffffffffffffffffffffffffffffffffffff1673ffffffffffffffffffffffffffffffffffffffff168152602001908152602001600020549050919050565b6105fd610b4d565b73ffffffffffffffffffffffffffffffffffffffff1661061b61067d565b73ffffffffffffffffffffffffffffffffffffffff1614610671576040517f08c379a0000000000000000000000000000000000000000000000000000000008152600401610668906116ae565b60405180910390fd5b61067b600061102d565b565b6000600560009054906101000a900473ffffffffffffffffffffffffffffffffffffffff16905090565b6060600480546106b69061187e565b80601f01602080910402602001604051908101604052809291908181526020018280546106e29061187e565b801561072f5780601f106107045761010080835404028352916020019161072f565b820191906000526020600020905b81548152906001019060200180831161071257829003601f168201915b5050505050905090565b600080610744610b4d565b90506000610752828661085e565b905083811015610797576040517f08c379a000000000000000000000000000000000000000000000000000000000815260040161078e9061170e565b60405180910390fd5b6107a48286868403610b55565b60019250505092915050565b6000806107bb610b4d565b90506107c8818585610dac565b600191505092915050565b6107db610b4d565b73ffffffffffffffffffffffffffffffffffffffff166107f961067d565b73ffffffffffffffffffffffffffffffffffffffff161461084f576040517f08c379a0000000000000000000000000000000000000000000000000000000008152600401610846906116ae565b60405180910390fd5b61085c336202bf206110f3565b565b6000600160008473ffffffffffffffffffffffffffffffffffffffff1673ffffffffffffffffffffffffffffffffffffffff16815260200190815260200160002060008373ffffffffffffffffffffffffffffffffffffffff1673ffffffffffffffffffffffffffffffffffffffff16815260200190815260200160002054905092915050565b6000805b6007805490508110156109a6573373ffffffffffffffffffffffffffffffffffffffff1660078281548110610947577f4e487b7100000000000000000000000000000000000000000000000000000000600052603260045260246000fd5b9060005260206000200160009054906101000a900473ffffffffffffffffffffffffffffffffffffffff1673ffffffffffffffffffffffffffffffffffffffff16141561099357600191505b808061099e906118b0565b9150506108e9565b50806109e7576040517f08c379a00000000000000000000000000000000000000000000000000000000081526004016109de9061164e565b60405180910390fd5b60011515600660003373ffffffffffffffffffffffffffffffffffffffff1673ffffffffffffffffffffffffffffffffffffffff16815260200190815260200160002060000160009054906101000a900460ff16151514610a4757600080fd5b610a523360036110f3565b50565b610a5d610b4d565b73ffffffffffffffffffffffffffffffffffffffff16610a7b61067d565b73ffffffffffffffffffffffffffffffffffffffff1614610ad1576040517f08c379a0000000000000000000000000000000000000000000000000000000008152600401610ac8906116ae565b60405180910390fd5b600073ffffffffffffffffffffffffffffffffffffffff168173ffffffffffffffffffffffffffffffffffffffff161415610b41576040517f08c379a0000000000000000000000000000000000000000000000000000000008152600401610b389061160e565b60405180910390fd5b610b4a8161102d565b50565b600033905090565b600073ffffffffffffffffffffffffffffffffffffffff168373ffffffffffffffffffffffffffffffffffffffff161415610bc5576040517f08c379a0000000000000000000000000000000000000000000000000000000008152600401610bbc906116ee565b60405180910390fd5b600073ffffffffffffffffffffffffffffffffffffffff168273ffffffffffffffffffffffffffffffffffffffff161415610c35576040517f08c379a0000000000000000000000000000000000000000000000000000000008152600401610c2c9061162e565b60405180910390fd5b80600160008573ffffffffffffffffffffffffffffffffffffffff1673ffffffffffffffffffffffffffffffffffffffff16815260200190815260200160002060008473ffffffffffffffffffffffffffffffffffffffff1673ffffffffffffffffffffffffffffffffffffffff168152602001908152602001600020819055508173ffffffffffffffffffffffffffffffffffffffff168373ffffffffffffffffffffffffffffffffffffffff167f8c5be1e5ebec7d5bd14f71427d1e84f3dd0314c0f7b2291e5b200ac8c7c3b92583604051610d13919061174e565b60405180910390a3505050565b6000610d2c848461085e565b90507fffffffffffffffffffffffffffffffffffffffffffffffffffffffffffffffff8114610da65781811015610d98576040517f08c379a0000000000000000000000000000000000000000000000000000000008152600401610d8f9061166e565b60405180910390fd5b610da58484848403610b55565b5b50505050565b600073ffffffffffffffffffffffffffffffffffffffff168373ffffffffffffffffffffffffffffffffffffffff161415610e1c576040517f08c379a0000000000000000000000000000000000000000000000000000000008152600401610e13906116ce565b60405180910390fd5b600073ffffffffffffffffffffffffffffffffffffffff168273ffffffffffffffffffffffffffffffffffffffff161415610e8c576040517f08c379a0000000000000000000000000000000000000000000000000000000008152600401610e83906115ee565b60405180910390fd5b610e97838383611253565b60008060008573ffffffffffffffffffffffffffffffffffffffff1673ffffffffffffffffffffffffffffffffffffffff16815260200190815260200160002054905081811015610f1d576040517f08c379a0000000000000000000000000000000000000000000000000000000008152600401610f149061168e565b60405180910390fd5b8181036000808673ffffffffffffffffffffffffffffffffffffffff1673ffffffffffffffffffffffffffffffffffffffff16815260200190815260200160002081905550816000808573ffffffffffffffffffffffffffffffffffffffff1673ffffffffffffffffffffffffffffffffffffffff1681526020019081526020016000206000828254610fb091906117a0565b925050819055508273ffffffffffffffffffffffffffffffffffffffff168473ffffffffffffffffffffffffffffffffffffffff167fddf252ad1be2c89b69c2b068fc378daa952ba7f163c4a11628f55a4df523b3ef84604051611014919061174e565b60405180910390a3611027848484611258565b50505050565b6000600560009054906101000a900473ffffffffffffffffffffffffffffffffffffffff16905081600560006101000a81548173ffffffffffffffffffffffffffffffffffffffff021916908373ffffffffffffffffffffffffffffffffffffffff1602179055508173ffffffffffffffffffffffffffffffffffffffff168173ffffffffffffffffffffffffffffffffffffffff167f8be0079c531659141344cd1fd0a4f28419497f9722a3daafe3b4186f6b6457e060405160405180910390a35050565b600073ffffffffffffffffffffffffffffffffffffffff168273ffffffffffffffffffffffffffffffffffffffff161415611163576040517f08c379a000000000000000000000000000000000000000000000000000000000815260040161115a9061172e565b60405180910390fd5b61116f60008383611253565b806002600082825461118191906117a0565b92505081905550806000808473ffffffffffffffffffffffffffffffffffffffff1673ffffffffffffffffffffffffffffffffffffffff16815260200190815260200160002060008282546111d691906117a0565b925050819055508173ffffffffffffffffffffffffffffffffffffffff16600073ffffffffffffffffffffffffffffffffffffffff167fddf252ad1be2c89b69c2b068fc378daa952ba7f163c4a11628f55a4df523b3ef8360405161123b919061174e565b60405180910390a361124f60008383611258565b5050565b505050565b505050565b60008135905061126c81611c5b565b92915050565b60008135905061128181611c72565b92915050565b60006020828403121561129957600080fd5b60006112a78482850161125d565b91505092915050565b600080604083850312156112c357600080fd5b60006112d18582860161125d565b92505060206112e28582860161125d565b9150509250929050565b60008060006060848603121561130157600080fd5b600061130f8682870161125d565b93505060206113208682870161125d565b925050604061133186828701611272565b9150509250925092565b6000806040838503121561134e57600080fd5b600061135c8582860161125d565b925050602061136d85828601611272565b9150509250929050565b60006020828403121561138957600080fd5b600061139784828501611272565b91505092915050565b6113a9816117f6565b82525050565b6113b881611808565b82525050565b60006113c982611784565b6113d3818561178f565b93506113e381856020860161184b565b6113ec81611957565b840191505092915050565b600061140460238361178f565b915061140f82611968565b604082019050919050565b600061142760268361178f565b9150611432826119b7565b604082019050919050565b600061144a60228361178f565b915061145582611a06565b604082019050919050565b600061146d60218361178f565b915061147882611a55565b604082019050919050565b6000611490601d8361178f565b915061149b82611aa4565b602082019050919050565b60006114b360268361178f565b91506114be82611acd565b604082019050919050565b60006114d660208361178f565b91506114e182611b1c565b602082019050919050565b60006114f960258361178f565b915061150482611b45565b604082019050919050565b600061151c60248361178f565b915061152782611b94565b604082019050919050565b600061153f60258361178f565b915061154a82611be3565b604082019050919050565b6000611562601f8361178f565b915061156d82611c32565b602082019050919050565b61158181611834565b82525050565b6115908161183e565b82525050565b60006020820190506115ab60008301846113a0565b92915050565b60006020820190506115c660008301846113af565b92915050565b600060208201905081810360008301526115e681846113be565b905092915050565b60006020820190508181036000830152611607816113f7565b9050919050565b600060208201905081810360008301526116278161141a565b9050919050565b600060208201905081810360008301526116478161143d565b9050919050565b6000602082019050818103600083015261166781611460565b9050919050565b6000602082019050818103600083015261168781611483565b9050919050565b600060208201905081810360008301526116a7816114a6565b9050919050565b600060208201905081810360008301526116c7816114c9565b9050919050565b600060208201905081810360008301526116e7816114ec565b9050919050565b600060208201905081810360008301526117078161150f565b9050919050565b6000602082019050818103600083015261172781611532565b9050919050565b6000602082019050818103600083015261174781611555565b9050919050565b60006020820190506117636000830184611578565b92915050565b600060208201905061177e6000830184611587565b92915050565b600081519050919050565b600082825260208201905092915050565b60006117ab82611834565b91506117b683611834565b9250827fffffffffffffffffffffffffffffffffffffffffffffffffffffffffffffffff038211156117eb576117ea6118f9565b5b828201905092915050565b600061180182611814565b9050919050565b60008115159050919050565b600073ffffffffffffffffffffffffffffffffffffffff82169050919050565b6000819050919050565b600060ff82169050919050565b60005b8381101561186957808201518184015260208101905061184e565b83811115611878576000848401525b50505050565b6000600282049050600182168061189657607f821691505b602082108114156118aa576118a9611928565b5b50919050565b60006118bb82611834565b91507fffffffffffffffffffffffffffffffffffffffffffffffffffffffffffffffff8214156118ee576118ed6118f9565b5b600182019050919050565b7f4e487b7100000000000000000000000000000000000000000000000000000000600052601160045260246000fd5b7f4e487b7100000000000000000000000000000000000000000000000000000000600052602260045260246000fd5b6000601f19601f8301169050919050565b7f45524332303a207472616e7366657220746f20746865207a65726f206164647260008201527f6573730000000000000000000000000000000000000000000000000000000000602082015250565b7f4f776e61626c653a206e6577206f776e657220697320746865207a65726f206160008201527f6464726573730000000000000000000000000000000000000000000000000000602082015250565b7f45524332303a20617070726f766520746f20746865207a65726f20616464726560008201527f7373000000000000000000000000000000000000000000000000000000000000602082015250565b7f596f7520686176656e277420656e746572656420796f75722074696d657a6f6e60008201527f6500000000000000000000000000000000000000000000000000000000000000602082015250565b7f45524332303a20696e73756666696369656e7420616c6c6f77616e6365000000600082015250565b7f45524332303a207472616e7366657220616d6f756e742065786365656473206260008201527f616c616e63650000000000000000000000000000000000000000000000000000602082015250565b7f4f776e61626c653a2063616c6c6572206973206e6f7420746865206f776e6572600082015250565b7f45524332303a207472616e736665722066726f6d20746865207a65726f20616460008201527f6472657373000000000000000000000000000000000000000000000000000000602082015250565b7f45524332303a20617070726f76652066726f6d20746865207a65726f2061646460008201527f7265737300000000000000000000000000000000000000000000000000000000602082015250565b7f45524332303a2064656372656173656420616c6c6f77616e63652062656c6f7760008201527f207a65726f000000000000000000000000000000000000000000000000000000602082015250565b7f45524332303a206d696e7420746f20746865207a65726f206164647265737300600082015250565b611c64816117f6565b8114611c6f57600080fd5b50565b611c7b81611834565b8114611c8657600080fd5b5056fea2646970667358221220413a61dda1638c32ea0b60f8fcd380065125092dfbc1e37da011512c9b1ba9f764736f6c63430008040033",
  "linkReferences": {},
  "deployedLinkReferences": {}
}