{
  "_format": "hh-sol-artifact-1",
  "contractName": "BobaGetUpEarly",
  "sourceName": "contracts/GetUpEarly.sol",
  "abi": [
    {
      "inputs": [],
      "stateMutability": "nonpayable",
      "type": "constructor"
    },
    {
      "anonymous": false,
      "inputs": [
        {
          "indexed": true,
          "internalType": "address",
          "name": "owner",
          "type": "address"
        },
        {
          "indexed": true,
          "internalType": "address",
          "name": "spender",
          "type": "address"
        },
        {
          "indexed": false,
          "internalType": "uint256",
          "name": "value",
          "type": "uint256"
        }
      ],
      "name": "Approval",
      "type": "event"
    },
    {
      "anonymous": false,
      "inputs": [
        {
          "indexed": true,
          "internalType": "address",
          "name": "from",
          "type": "address"
        },
        {
          "indexed": true,
          "internalType": "address",
          "name": "to",
          "type": "address"
        },
        {
          "indexed": false,
          "internalType": "uint256",
          "name": "value",
          "type": "uint256"
        }
      ],
      "name": "Transfer",
      "type": "event"
    },
    {
      "inputs": [],
      "name": "BOBA_PAYOUT",
      "outputs": [
        {
          "internalType": "uint256",
          "name": "",
          "type": "uint256"
        }
      ],
      "stateMutability": "view",
      "type": "function"
    },
    {
      "inputs": [],
      "name": "CONTRACT_APPROVAL_AMOUNT",
      "outputs": [
        {
          "internalType": "uint256",
          "name": "",
          "type": "uint256"
        }
      ],
      "stateMutability": "view",
      "type": "function"
    },
    {
      "inputs": [],
      "name": "GUP_REDEMPTION_AMOUNT",
      "outputs": [
        {
          "internalType": "uint256",
          "name": "",
          "type": "uint256"
        }
      ],
      "stateMutability": "view",
      "type": "function"
    },
    {
      "inputs": [
        {
          "internalType": "address",
          "name": "owner",
          "type": "address"
        },
        {
          "internalType": "address",
          "name": "spender",
          "type": "address"
        }
      ],
      "name": "allowance",
      "outputs": [
        {
          "internalType": "uint256",
          "name": "",
          "type": "uint256"
        }
      ],
      "stateMutability": "view",
      "type": "function"
    },
    {
      "inputs": [
        {
          "internalType": "address",
          "name": "spender",
          "type": "address"
        },
        {
          "internalType": "uint256",
          "name": "amount",
          "type": "uint256"
        }
      ],
      "name": "approve",
      "outputs": [
        {
          "internalType": "bool",
          "name": "",
          "type": "bool"
        }
      ],
      "stateMutability": "nonpayable",
      "type": "function"
    },
    {
      "inputs": [
        {
          "internalType": "address",
          "name": "account",
          "type": "address"
        }
      ],
      "name": "balanceOf",
      "outputs": [
        {
          "internalType": "uint256",
          "name": "",
          "type": "uint256"
        }
      ],
      "stateMutability": "view",
      "type": "function"
    },
    {
      "inputs": [],
      "name": "decimals",
      "outputs": [
        {
          "internalType": "uint8",
          "name": "",
          "type": "uint8"
        }
      ],
      "stateMutability": "view",
      "type": "function"
    },
    {
      "inputs": [
        {
          "internalType": "address",
          "name": "spender",
          "type": "address"
        },
        {
          "internalType": "uint256",
          "name": "subtractedValue",
          "type": "uint256"
        }
      ],
      "name": "decreaseAllowance",
      "outputs": [
        {
          "internalType": "bool",
          "name": "",
          "type": "bool"
        }
      ],
      "stateMutability": "nonpayable",
      "type": "function"
    },
    {
      "inputs": [
        {
          "internalType": "uint8",
          "name": "timezone",
          "type": "uint8"
        }
      ],
      "name": "enterTimeZone",
      "outputs": [],
      "stateMutability": "nonpayable",
      "type": "function"
    },
    {
      "inputs": [
        {
          "internalType": "address",
          "name": "spender",
          "type": "address"
        },
        {
          "internalType": "uint256",
          "name": "addedValue",
          "type": "uint256"
        }
      ],
      "name": "increaseAllowance",
      "outputs": [
        {
          "internalType": "bool",
          "name": "",
          "type": "bool"
        }
      ],
      "stateMutability": "nonpayable",
      "type": "function"
    },
    {
      "inputs": [],
      "name": "mintTokens",
      "outputs": [],
      "stateMutability": "nonpayable",
      "type": "function"
    },
    {
      "inputs": [],
      "name": "name",
      "outputs": [
        {
          "internalType": "string",
          "name": "",
          "type": "string"
        }
      ],
      "stateMutability": "view",
      "type": "function"
    },
    {
      "inputs": [],
      "name": "redeamGUPForBobaMainnet",
      "outputs": [],
      "stateMutability": "payable",
      "type": "function"
    },
    {
      "inputs": [
        {
          "internalType": "bool",
          "name": "wakeUpEarly",
          "type": "bool"
        },
        {
          "internalType": "string",
          "name": "currentDate",
          "type": "string"
        }
      ],
      "name": "redeemBobaGetUpEarly",
      "outputs": [],
      "stateMutability": "nonpayable",
      "type": "function"
    },
    {
      "inputs": [],
      "name": "symbol",
      "outputs": [
        {
          "internalType": "string",
          "name": "",
          "type": "string"
        }
      ],
      "stateMutability": "view",
      "type": "function"
    },
    {
      "inputs": [],
      "name": "totalSupply",
      "outputs": [
        {
          "internalType": "uint256",
          "name": "",
          "type": "uint256"
        }
      ],
      "stateMutability": "view",
      "type": "function"
    },
    {
      "inputs": [
        {
          "internalType": "address",
          "name": "to",
          "type": "address"
        },
        {
          "internalType": "uint256",
          "name": "amount",
          "type": "uint256"
        }
      ],
      "name": "transfer",
      "outputs": [
        {
          "internalType": "bool",
          "name": "",
          "type": "bool"
        }
      ],
      "stateMutability": "nonpayable",
      "type": "function"
    },
    {
      "inputs": [
        {
          "internalType": "address",
          "name": "from",
          "type": "address"
        },
        {
          "internalType": "address",
          "name": "to",
          "type": "address"
        },
        {
          "internalType": "uint256",
          "name": "amount",
          "type": "uint256"
        }
      ],
      "name": "transferFrom",
      "outputs": [
        {
          "internalType": "bool",
          "name": "",
          "type": "bool"
        }
      ],
      "stateMutability": "nonpayable",
      "type": "function"
    },
    {
      "stateMutability": "payable",
      "type": "receive"
    }
  ],
  "bytecode": "0x60806040523480156200001157600080fd5b506040518060400160405280600a81526020017f47657455704561726c79000000000000000000000000000000000000000000008152506040518060400160405280600381526020017f4755500000000000000000000000000000000000000000000000000000000000815250816003908051906020019062000096929190620000b8565b508060049080519060200190620000af929190620000b8565b505050620001cd565b828054620000c69062000168565b90600052602060002090601f016020900481019282620000ea576000855562000136565b82601f106200010557805160ff191683800117855562000136565b8280016001018555821562000136579182015b828111156200013557825182559160200191906001019062000118565b5b50905062000145919062000149565b5090565b5b80821115620001645760008160009055506001016200014a565b5090565b600060028204905060018216806200018157607f821691505b602082108114156200019857620001976200019e565b5b50919050565b7f4e487b7100000000000000000000000000000000000000000000000000000000600052602260045260246000fd5b61217c80620001dd6000396000f3fe60806040526004361061010d5760003560e01c806370a0823111610095578063a9059cbb11610064578063a9059cbb1461037d578063c897871a146103ba578063cbcd9c8f146103e5578063dd62ed3e14610410578063eeb9635c1461044d57610114565b806370a08231146102ce5780638326c1e51461030b57806395d89b4114610315578063a457c2d71461034057610114565b806323b872dd116100dc57806323b872dd146101d7578063313ce56714610214578063395093511461023f5780636033e8ae1461027c578063604af918146102a557610114565b806306fdde0314610119578063095ea7b3146101445780630ea613b31461018157806318160ddd146101ac57610114565b3661011457005b600080fd5b34801561012557600080fd5b5061012e610464565b60405161013b9190611931565b60405180910390f35b34801561015057600080fd5b5061016b6004803603810190610166919061162e565b6104f6565b6040516101789190611916565b60405180910390f35b34801561018d57600080fd5b50610196610519565b6040516101a39190611ab3565b60405180910390f35b3480156101b857600080fd5b506101c1610527565b6040516101ce9190611ab3565b60405180910390f35b3480156101e357600080fd5b506101fe60048036038101906101f991906115df565b610531565b60405161020b9190611916565b60405180910390f35b34801561022057600080fd5b50610229610560565b6040516102369190611ace565b60405180910390f35b34801561024b57600080fd5b506102666004803603810190610261919061162e565b610569565b6040516102739190611916565b60405180910390f35b34801561028857600080fd5b506102a3600480360381019061029e91906116be565b6105a0565b005b3480156102b157600080fd5b506102cc60048036038101906102c7919061166a565b610749565b005b3480156102da57600080fd5b506102f560048036038101906102f0919061157a565b6108f4565b6040516103029190611ab3565b60405180910390f35b61031361093c565b005b34801561032157600080fd5b5061032a610abc565b6040516103379190611931565b60405180910390f35b34801561034c57600080fd5b506103676004803603810190610362919061162e565b610b4e565b6040516103749190611916565b60405180910390f35b34801561038957600080fd5b506103a4600480360381019061039f919061162e565b610bc5565b6040516103b19190611916565b60405180910390f35b3480156103c657600080fd5b506103cf610be8565b6040516103dc9190611ab3565b60405180910390f35b3480156103f157600080fd5b506103fa610bf5565b6040516104079190611ab3565b60405180910390f35b34801561041c57600080fd5b50610437600480360381019061043291906115a3565b610c01565b6040516104449190611ab3565b60405180910390f35b34801561045957600080fd5b50610462610c88565b005b60606003805461047390611c87565b80601f016020809104026020016040519081016040528092919081815260200182805461049f90611c87565b80156104ec5780601f106104c1576101008083540402835291602001916104ec565b820191906000526020600020905b8154815290600101906020018083116104cf57829003601f168201915b5050505050905090565b600080610501610c9d565b905061050e818585610ca5565b600191505092915050565b69152d02c7e14af680000081565b6000600254905090565b60008061053c610c9d565b9050610549858285610e70565b610554858585610efc565b60019150509392505050565b60006012905090565b600080610574610c9d565b90506105958185856105868589610c01565b6105909190611b66565b610ca5565b600191505092915050565b60008160ff16141561063f576000600560003373ffffffffffffffffffffffffffffffffffffffff1673ffffffffffffffffffffffffffffffffffffffff16815260200190815260200160002060006101000a81548160ff02191690836001811115610635577f4e487b7100000000000000000000000000000000000000000000000000000000600052602160045260246000fd5b02179055506106ce565b6001600560003373ffffffffffffffffffffffffffffffffffffffff1673ffffffffffffffffffffffffffffffffffffffff16815260200190815260200160002060006101000a81548160ff021916908360018111156106c8577f4e487b7100000000000000000000000000000000000000000000000000000000600052602160045260246000fd5b02179055505b6106e23069152d02c7e14af68000006104f6565b506006339080600181540180825580915050600190039060005260206000200160009091909190916101000a81548173ffffffffffffffffffffffffffffffffffffffff021916908373ffffffffffffffffffffffffffffffffffffffff16021790555050565b6000805b60068054905081101561080a573373ffffffffffffffffffffffffffffffffffffffff16600682815481106107ab577f4e487b7100000000000000000000000000000000000000000000000000000000600052603260045260246000fd5b9060005260206000200160009054906101000a900473ffffffffffffffffffffffffffffffffffffffff1673ffffffffffffffffffffffffffffffffffffffff1614156107f757600191505b808061080290611cea565b91505061074d565b508061084b576040517f08c379a0000000000000000000000000000000000000000000000000000000008152600401610842906119b3565b60405180910390fd5b82600760003373ffffffffffffffffffffffffffffffffffffffff1673ffffffffffffffffffffffffffffffffffffffff1681526020019081526020016000208360405161089991906118ff565b908152602001604051809103902060006101000a81548160ff02191690831515021790555082156108dc576108d7336802b5e3af16b188000061117d565b6108ef565b6108ee336108e9336108f4565b6112dd565b5b505050565b60008060008373ffffffffffffffffffffffffffffffffffffffff1673ffffffffffffffffffffffffffffffffffffffff168152602001908152602001600020549050919050565b6000805b6006805490508110156109fd573373ffffffffffffffffffffffffffffffffffffffff166006828154811061099e577f4e487b7100000000000000000000000000000000000000000000000000000000600052603260045260246000fd5b9060005260206000200160009054906101000a900473ffffffffffffffffffffffffffffffffffffffff1673ffffffffffffffffffffffffffffffffffffffff1614156109ea57600191505b80806109f590611cea565b915050610940565b5080610a3e576040517f08c379a0000000000000000000000000000000000000000000000000000000008152600401610a35906119b3565b60405180910390fd5b6802b5e3af16b1880000610a51336108f4565b10610ab957610a69336802b5e3af16b18800006112dd565b3373ffffffffffffffffffffffffffffffffffffffff166108fc67016345785d8a00009081150290604051600060405180830381858888f19350505050158015610ab7573d6000803e3d6000fd5b505b50565b606060048054610acb90611c87565b80601f0160208091040260200160405190810160405280929190818152602001828054610af790611c87565b8015610b445780601f10610b1957610100808354040283529160200191610b44565b820191906000526020600020905b815481529060010190602001808311610b2757829003601f168201915b5050505050905090565b600080610b59610c9d565b90506000610b678286610c01565b905083811015610bac576040517f08c379a0000000000000000000000000000000000000000000000000000000008152600401610ba390611a73565b60405180910390fd5b610bb98286868403610ca5565b60019250505092915050565b600080610bd0610c9d565b9050610bdd818585610efc565b600191505092915050565b6802b5e3af16b188000081565b67016345785d8a000081565b6000600160008473ffffffffffffffffffffffffffffffffffffffff1673ffffffffffffffffffffffffffffffffffffffff16815260200190815260200160002060008373ffffffffffffffffffffffffffffffffffffffff1673ffffffffffffffffffffffffffffffffffffffff16815260200190815260200160002054905092915050565b610c9b33683635c9adc5dea0000061117d565b565b600033905090565b600073ffffffffffffffffffffffffffffffffffffffff168373ffffffffffffffffffffffffffffffffffffffff161415610d15576040517f08c379a0000000000000000000000000000000000000000000000000000000008152600401610d0c90611a53565b60405180910390fd5b600073ffffffffffffffffffffffffffffffffffffffff168273ffffffffffffffffffffffffffffffffffffffff161415610d85576040517f08c379a0000000000000000000000000000000000000000000000000000000008152600401610d7c90611993565b60405180910390fd5b80600160008573ffffffffffffffffffffffffffffffffffffffff1673ffffffffffffffffffffffffffffffffffffffff16815260200190815260200160002060008473ffffffffffffffffffffffffffffffffffffffff1673ffffffffffffffffffffffffffffffffffffffff168152602001908152602001600020819055508173ffffffffffffffffffffffffffffffffffffffff168373ffffffffffffffffffffffffffffffffffffffff167f8c5be1e5ebec7d5bd14f71427d1e84f3dd0314c0f7b2291e5b200ac8c7c3b92583604051610e639190611ab3565b60405180910390a3505050565b6000610e7c8484610c01565b90507fffffffffffffffffffffffffffffffffffffffffffffffffffffffffffffffff8114610ef65781811015610ee8576040517f08c379a0000000000000000000000000000000000000000000000000000000008152600401610edf906119d3565b60405180910390fd5b610ef58484848403610ca5565b5b50505050565b600073ffffffffffffffffffffffffffffffffffffffff168373ffffffffffffffffffffffffffffffffffffffff161415610f6c576040517f08c379a0000000000000000000000000000000000000000000000000000000008152600401610f6390611a33565b60405180910390fd5b600073ffffffffffffffffffffffffffffffffffffffff168273ffffffffffffffffffffffffffffffffffffffff161415610fdc576040517f08c379a0000000000000000000000000000000000000000000000000000000008152600401610fd390611953565b60405180910390fd5b610fe78383836114b4565b60008060008573ffffffffffffffffffffffffffffffffffffffff1673ffffffffffffffffffffffffffffffffffffffff1681526020019081526020016000205490508181101561106d576040517f08c379a0000000000000000000000000000000000000000000000000000000008152600401611064906119f3565b60405180910390fd5b8181036000808673ffffffffffffffffffffffffffffffffffffffff1673ffffffffffffffffffffffffffffffffffffffff16815260200190815260200160002081905550816000808573ffffffffffffffffffffffffffffffffffffffff1673ffffffffffffffffffffffffffffffffffffffff16815260200190815260200160002060008282546111009190611b66565b925050819055508273ffffffffffffffffffffffffffffffffffffffff168473ffffffffffffffffffffffffffffffffffffffff167fddf252ad1be2c89b69c2b068fc378daa952ba7f163c4a11628f55a4df523b3ef846040516111649190611ab3565b60405180910390a36111778484846114b9565b50505050565b600073ffffffffffffffffffffffffffffffffffffffff168273ffffffffffffffffffffffffffffffffffffffff1614156111ed576040517f08c379a00000000000000000000000000000000000000000000000000000000081526004016111e490611a93565b60405180910390fd5b6111f9600083836114b4565b806002600082825461120b9190611b66565b92505081905550806000808473ffffffffffffffffffffffffffffffffffffffff1673ffffffffffffffffffffffffffffffffffffffff16815260200190815260200160002060008282546112609190611b66565b925050819055508173ffffffffffffffffffffffffffffffffffffffff16600073ffffffffffffffffffffffffffffffffffffffff167fddf252ad1be2c89b69c2b068fc378daa952ba7f163c4a11628f55a4df523b3ef836040516112c59190611ab3565b60405180910390a36112d9600083836114b9565b5050565b600073ffffffffffffffffffffffffffffffffffffffff168273ffffffffffffffffffffffffffffffffffffffff16141561134d576040517f08c379a000000000000000000000000000000000000000000000000000000000815260040161134490611a13565b60405180910390fd5b611359826000836114b4565b60008060008473ffffffffffffffffffffffffffffffffffffffff1673ffffffffffffffffffffffffffffffffffffffff168152602001908152602001600020549050818110156113df576040517f08c379a00000000000000000000000000000000000000000000000000000000081526004016113d690611973565b60405180910390fd5b8181036000808573ffffffffffffffffffffffffffffffffffffffff1673ffffffffffffffffffffffffffffffffffffffff1681526020019081526020016000208190555081600260008282546114369190611bbc565b92505081905550600073ffffffffffffffffffffffffffffffffffffffff168373ffffffffffffffffffffffffffffffffffffffff167fddf252ad1be2c89b69c2b068fc378daa952ba7f163c4a11628f55a4df523b3ef8460405161149b9190611ab3565b60405180910390a36114af836000846114b9565b505050565b505050565b505050565b60006114d16114cc84611b0e565b611ae9565b9050828152602081018484840111156114e957600080fd5b6114f4848285611c45565b509392505050565b60008135905061150b816120ea565b92915050565b60008135905061152081612101565b92915050565b600082601f83011261153757600080fd5b81356115478482602086016114be565b91505092915050565b60008135905061155f81612118565b92915050565b6000813590506115748161212f565b92915050565b60006020828403121561158c57600080fd5b600061159a848285016114fc565b91505092915050565b600080604083850312156115b657600080fd5b60006115c4858286016114fc565b92505060206115d5858286016114fc565b9150509250929050565b6000806000606084860312156115f457600080fd5b6000611602868287016114fc565b9350506020611613868287016114fc565b925050604061162486828701611550565b9150509250925092565b6000806040838503121561164157600080fd5b600061164f858286016114fc565b925050602061166085828601611550565b9150509250929050565b6000806040838503121561167d57600080fd5b600061168b85828601611511565b925050602083013567ffffffffffffffff8111156116a857600080fd5b6116b485828601611526565b9150509250929050565b6000602082840312156116d057600080fd5b60006116de84828501611565565b91505092915050565b6116f081611c02565b82525050565b600061170182611b3f565b61170b8185611b4a565b935061171b818560208601611c54565b61172481611dc0565b840191505092915050565b600061173a82611b3f565b6117448185611b5b565b9350611754818560208601611c54565b80840191505092915050565b600061176d602383611b4a565b915061177882611dd1565b604082019050919050565b6000611790602283611b4a565b915061179b82611e20565b604082019050919050565b60006117b3602283611b4a565b91506117be82611e6f565b604082019050919050565b60006117d6602183611b4a565b91506117e182611ebe565b604082019050919050565b60006117f9601d83611b4a565b915061180482611f0d565b602082019050919050565b600061181c602683611b4a565b915061182782611f36565b604082019050919050565b600061183f602183611b4a565b915061184a82611f85565b604082019050919050565b6000611862602583611b4a565b915061186d82611fd4565b604082019050919050565b6000611885602483611b4a565b915061189082612023565b604082019050919050565b60006118a8602583611b4a565b91506118b382612072565b604082019050919050565b60006118cb601f83611b4a565b91506118d6826120c1565b602082019050919050565b6118ea81611c2e565b82525050565b6118f981611c38565b82525050565b600061190b828461172f565b915081905092915050565b600060208201905061192b60008301846116e7565b92915050565b6000602082019050818103600083015261194b81846116f6565b905092915050565b6000602082019050818103600083015261196c81611760565b9050919050565b6000602082019050818103600083015261198c81611783565b9050919050565b600060208201905081810360008301526119ac816117a6565b9050919050565b600060208201905081810360008301526119cc816117c9565b9050919050565b600060208201905081810360008301526119ec816117ec565b9050919050565b60006020820190508181036000830152611a0c8161180f565b9050919050565b60006020820190508181036000830152611a2c81611832565b9050919050565b60006020820190508181036000830152611a4c81611855565b9050919050565b60006020820190508181036000830152611a6c81611878565b9050919050565b60006020820190508181036000830152611a8c8161189b565b9050919050565b60006020820190508181036000830152611aac816118be565b9050919050565b6000602082019050611ac860008301846118e1565b92915050565b6000602082019050611ae360008301846118f0565b92915050565b6000611af3611b04565b9050611aff8282611cb9565b919050565b6000604051905090565b600067ffffffffffffffff821115611b2957611b28611d91565b5b611b3282611dc0565b9050602081019050919050565b600081519050919050565b600082825260208201905092915050565b600081905092915050565b6000611b7182611c2e565b9150611b7c83611c2e565b9250827fffffffffffffffffffffffffffffffffffffffffffffffffffffffffffffffff03821115611bb157611bb0611d33565b5b828201905092915050565b6000611bc782611c2e565b9150611bd283611c2e565b925082821015611be557611be4611d33565b5b828203905092915050565b6000611bfb82611c0e565b9050919050565b60008115159050919050565b600073ffffffffffffffffffffffffffffffffffffffff82169050919050565b6000819050919050565b600060ff82169050919050565b82818337600083830152505050565b60005b83811015611c72578082015181840152602081019050611c57565b83811115611c81576000848401525b50505050565b60006002820490506001821680611c9f57607f821691505b60208210811415611cb357611cb2611d62565b5b50919050565b611cc282611dc0565b810181811067ffffffffffffffff82111715611ce157611ce0611d91565b5b80604052505050565b6000611cf582611c2e565b91507fffffffffffffffffffffffffffffffffffffffffffffffffffffffffffffffff821415611d2857611d27611d33565b5b600182019050919050565b7f4e487b7100000000000000000000000000000000000000000000000000000000600052601160045260246000fd5b7f4e487b7100000000000000000000000000000000000000000000000000000000600052602260045260246000fd5b7f4e487b7100000000000000000000000000000000000000000000000000000000600052604160045260246000fd5b6000601f19601f8301169050919050565b7f45524332303a207472616e7366657220746f20746865207a65726f206164647260008201527f6573730000000000000000000000000000000000000000000000000000000000602082015250565b7f45524332303a206275726e20616d6f756e7420657863656564732062616c616e60008201527f6365000000000000000000000000000000000000000000000000000000000000602082015250565b7f45524332303a20617070726f766520746f20746865207a65726f20616464726560008201527f7373000000000000000000000000000000000000000000000000000000000000602082015250565b7f596f7520686176656e277420656e746572656420796f75722074696d657a6f6e60008201527f6500000000000000000000000000000000000000000000000000000000000000602082015250565b7f45524332303a20696e73756666696369656e7420616c6c6f77616e6365000000600082015250565b7f45524332303a207472616e7366657220616d6f756e742065786365656473206260008201527f616c616e63650000000000000000000000000000000000000000000000000000602082015250565b7f45524332303a206275726e2066726f6d20746865207a65726f2061646472657360008201527f7300000000000000000000000000000000000000000000000000000000000000602082015250565b7f45524332303a207472616e736665722066726f6d20746865207a65726f20616460008201527f6472657373000000000000000000000000000000000000000000000000000000602082015250565b7f45524332303a20617070726f76652066726f6d20746865207a65726f2061646460008201527f7265737300000000000000000000000000000000000000000000000000000000602082015250565b7f45524332303a2064656372656173656420616c6c6f77616e63652062656c6f7760008201527f207a65726f000000000000000000000000000000000000000000000000000000602082015250565b7f45524332303a206d696e7420746f20746865207a65726f206164647265737300600082015250565b6120f381611bf0565b81146120fe57600080fd5b50565b61210a81611c02565b811461211557600080fd5b50565b61212181611c2e565b811461212c57600080fd5b50565b61213881611c38565b811461214357600080fd5b5056fea2646970667358221220a38b3bd99ba1975487bbd43910738ad16c3ebf184c65db5d0b0cf7992c07de5b64736f6c63430008040033",
  "linkReferences": {},
  "deployedLinkReferences": {}
}