{
  "_format": "hh-sol-artifact-1",
  "contractName": "BobaGetUpEarly",
  "sourceName": "contracts/Greeter.sol",
  "abi": [
    {
      "inputs": [],
      "stateMutability": "nonpayable",
      "type": "constructor"
    },
    {
      "anonymous": false,
      "inputs": [
        {
          "indexed": true,
          "internalType": "address",
          "name": "owner",
          "type": "address"
        },
        {
          "indexed": true,
          "internalType": "address",
          "name": "spender",
          "type": "address"
        },
        {
          "indexed": false,
          "internalType": "uint256",
          "name": "value",
          "type": "uint256"
        }
      ],
      "name": "Approval",
      "type": "event"
    },
    {
      "anonymous": false,
      "inputs": [
        {
          "indexed": true,
          "internalType": "address",
          "name": "from",
          "type": "address"
        },
        {
          "indexed": true,
          "internalType": "address",
          "name": "to",
          "type": "address"
        },
        {
          "indexed": false,
          "internalType": "uint256",
          "name": "value",
          "type": "uint256"
        }
      ],
      "name": "Transfer",
      "type": "event"
    },
    {
      "inputs": [
        {
          "internalType": "address",
          "name": "owner",
          "type": "address"
        },
        {
          "internalType": "address",
          "name": "spender",
          "type": "address"
        }
      ],
      "name": "allowance",
      "outputs": [
        {
          "internalType": "uint256",
          "name": "",
          "type": "uint256"
        }
      ],
      "stateMutability": "view",
      "type": "function"
    },
    {
      "inputs": [
        {
          "internalType": "address",
          "name": "spender",
          "type": "address"
        },
        {
          "internalType": "uint256",
          "name": "amount",
          "type": "uint256"
        }
      ],
      "name": "approve",
      "outputs": [
        {
          "internalType": "bool",
          "name": "",
          "type": "bool"
        }
      ],
      "stateMutability": "nonpayable",
      "type": "function"
    },
    {
      "inputs": [
        {
          "internalType": "address",
          "name": "account",
          "type": "address"
        }
      ],
      "name": "balanceOf",
      "outputs": [
        {
          "internalType": "uint256",
          "name": "",
          "type": "uint256"
        }
      ],
      "stateMutability": "view",
      "type": "function"
    },
    {
      "inputs": [],
      "name": "decimals",
      "outputs": [
        {
          "internalType": "uint8",
          "name": "",
          "type": "uint8"
        }
      ],
      "stateMutability": "view",
      "type": "function"
    },
    {
      "inputs": [
        {
          "internalType": "address",
          "name": "spender",
          "type": "address"
        },
        {
          "internalType": "uint256",
          "name": "subtractedValue",
          "type": "uint256"
        }
      ],
      "name": "decreaseAllowance",
      "outputs": [
        {
          "internalType": "bool",
          "name": "",
          "type": "bool"
        }
      ],
      "stateMutability": "nonpayable",
      "type": "function"
    },
    {
      "inputs": [
        {
          "internalType": "uint8",
          "name": "timezone",
          "type": "uint8"
        }
      ],
      "name": "enterTimeZone",
      "outputs": [],
      "stateMutability": "nonpayable",
      "type": "function"
    },
    {
      "inputs": [
        {
          "internalType": "address",
          "name": "spender",
          "type": "address"
        },
        {
          "internalType": "uint256",
          "name": "addedValue",
          "type": "uint256"
        }
      ],
      "name": "increaseAllowance",
      "outputs": [
        {
          "internalType": "bool",
          "name": "",
          "type": "bool"
        }
      ],
      "stateMutability": "nonpayable",
      "type": "function"
    },
    {
      "inputs": [],
      "name": "name",
      "outputs": [
        {
          "internalType": "string",
          "name": "",
          "type": "string"
        }
      ],
      "stateMutability": "view",
      "type": "function"
    },
    {
      "inputs": [],
      "name": "redeamGUPForBobaMainnet",
      "outputs": [],
      "stateMutability": "nonpayable",
      "type": "function"
    },
    {
      "inputs": [],
      "name": "redeemBobaGetUpEarly",
      "outputs": [],
      "stateMutability": "nonpayable",
      "type": "function"
    },
    {
      "inputs": [],
      "name": "symbol",
      "outputs": [
        {
          "internalType": "string",
          "name": "",
          "type": "string"
        }
      ],
      "stateMutability": "view",
      "type": "function"
    },
    {
      "inputs": [],
      "name": "totalSupply",
      "outputs": [
        {
          "internalType": "uint256",
          "name": "",
          "type": "uint256"
        }
      ],
      "stateMutability": "view",
      "type": "function"
    },
    {
      "inputs": [
        {
          "internalType": "address",
          "name": "to",
          "type": "address"
        },
        {
          "internalType": "uint256",
          "name": "amount",
          "type": "uint256"
        }
      ],
      "name": "transfer",
      "outputs": [
        {
          "internalType": "bool",
          "name": "",
          "type": "bool"
        }
      ],
      "stateMutability": "nonpayable",
      "type": "function"
    },
    {
      "inputs": [
        {
          "internalType": "address",
          "name": "from",
          "type": "address"
        },
        {
          "internalType": "address",
          "name": "to",
          "type": "address"
        },
        {
          "internalType": "uint256",
          "name": "amount",
          "type": "uint256"
        }
      ],
      "name": "transferFrom",
      "outputs": [
        {
          "internalType": "bool",
          "name": "",
          "type": "bool"
        }
      ],
      "stateMutability": "nonpayable",
      "type": "function"
    }
  ],
  "bytecode": "0x60806040523480156200001157600080fd5b506040518060400160405280600a81526020017f47657455704561726c79000000000000000000000000000000000000000000008152506040518060400160405280600381526020017f4755500000000000000000000000000000000000000000000000000000000000815250816003908051906020019062000096929190620000b8565b508060049080519060200190620000af929190620000b8565b505050620001cd565b828054620000c69062000168565b90600052602060002090601f016020900481019282620000ea576000855562000136565b82601f106200010557805160ff191683800117855562000136565b8280016001018555821562000136579182015b828111156200013557825182559160200191906001019062000118565b5b50905062000145919062000149565b5090565b5b80821115620001645760008160009055506001016200014a565b5090565b600060028204905060018216806200018157607f821691505b602082108114156200019857620001976200019e565b5b50919050565b7f4e487b7100000000000000000000000000000000000000000000000000000000600052602260045260246000fd5b611d2080620001dd6000396000f3fe608060405234801561001057600080fd5b50600436106100ea5760003560e01c806370a082311161008c578063a457c2d711610066578063a457c2d71461024d578063a9059cbb1461027d578063c12ad540146102ad578063dd62ed3e146102b7576100ea565b806370a08231146101f55780638326c1e51461022557806395d89b411461022f576100ea565b806323b872dd116100c857806323b872dd1461015b578063313ce5671461018b57806339509351146101a95780636033e8ae146101d9576100ea565b806306fdde03146100ef578063095ea7b31461010d57806318160ddd1461013d575b600080fd5b6100f76102e7565b60405161010491906115bc565b60405180910390f35b61012760048036038101906101229190611355565b610379565b60405161013491906115a1565b60405180910390f35b61014561039c565b604051610152919061173e565b60405180910390f35b61017560048036038101906101709190611306565b6103a6565b60405161018291906115a1565b60405180910390f35b6101936103d5565b6040516101a09190611759565b60405180910390f35b6101c360048036038101906101be9190611355565b6103de565b6040516101d091906115a1565b60405180910390f35b6101f360048036038101906101ee9190611391565b610415565b005b61020f600480360381019061020a91906112a1565b6105a9565b60405161021c919061173e565b60405180910390f35b61022d6105f1565b005b610237610759565b60405161024491906115bc565b60405180910390f35b61026760048036038101906102629190611355565b6107eb565b60405161027491906115a1565b60405180910390f35b61029760048036038101906102929190611355565b610862565b6040516102a491906115a1565b60405180910390f35b6102b5610885565b005b6102d160048036038101906102cc91906112ca565b6109ba565b6040516102de919061173e565b60405180910390f35b6060600380546102f6906118a2565b80601f0160208091040260200160405190810160405280929190818152602001828054610322906118a2565b801561036f5780601f106103445761010080835404028352916020019161036f565b820191906000526020600020905b81548152906001019060200180831161035257829003601f168201915b5050505050905090565b600080610384610a41565b9050610391818585610a49565b600191505092915050565b6000600254905090565b6000806103b1610a41565b90506103be858285610c14565b6103c9858585610ca0565b60019150509392505050565b60006012905090565b6000806103e9610a41565b905061040a8185856103fb85896109ba565b6104059190611790565b610a49565b600191505092915050565b60008160ff1614156104b4576000600560003373ffffffffffffffffffffffffffffffffffffffff1673ffffffffffffffffffffffffffffffffffffffff16815260200190815260200160002060006101000a81548160ff021916908360018111156104aa577f4e487b7100000000000000000000000000000000000000000000000000000000600052602160045260246000fd5b0217905550610543565b6001600560003373ffffffffffffffffffffffffffffffffffffffff1673ffffffffffffffffffffffffffffffffffffffff16815260200190815260200160002060006101000a81548160ff0219169083600181111561053d577f4e487b7100000000000000000000000000000000000000000000000000000000600052602160045260246000fd5b02179055505b6006339080600181540180825580915050600190039060005260206000200160009091909190916101000a81548173ffffffffffffffffffffffffffffffffffffffff021916908373ffffffffffffffffffffffffffffffffffffffff16021790555050565b60008060008373ffffffffffffffffffffffffffffffffffffffff1673ffffffffffffffffffffffffffffffffffffffff168152602001908152602001600020549050919050565b6000805b6006805490508110156106b2573373ffffffffffffffffffffffffffffffffffffffff1660068281548110610653577f4e487b7100000000000000000000000000000000000000000000000000000000600052603260045260246000fd5b9060005260206000200160009054906101000a900473ffffffffffffffffffffffffffffffffffffffff1673ffffffffffffffffffffffffffffffffffffffff16141561069f57600191505b80806106aa906118d4565b9150506105f5565b50806106f3576040517f08c379a00000000000000000000000000000000000000000000000000000000081526004016106ea9061163e565b60405180910390fd5b600f6106fe336105a9565b106107565761070e33600f610f21565b3373ffffffffffffffffffffffffffffffffffffffff166108fc479081150290604051600060405180830381858888f19350505050158015610754573d6000803e3d6000fd5b505b50565b606060048054610768906118a2565b80601f0160208091040260200160405190810160405280929190818152602001828054610794906118a2565b80156107e15780601f106107b6576101008083540402835291602001916107e1565b820191906000526020600020905b8154815290600101906020018083116107c457829003601f168201915b5050505050905090565b6000806107f6610a41565b9050600061080482866109ba565b905083811015610849576040517f08c379a0000000000000000000000000000000000000000000000000000000008152600401610840906116fe565b60405180910390fd5b6108568286868403610a49565b60019250505092915050565b60008061086d610a41565b905061087a818585610ca0565b600191505092915050565b6000805b600680549050811015610946573373ffffffffffffffffffffffffffffffffffffffff16600682815481106108e7577f4e487b7100000000000000000000000000000000000000000000000000000000600052603260045260246000fd5b9060005260206000200160009054906101000a900473ffffffffffffffffffffffffffffffffffffffff1673ffffffffffffffffffffffffffffffffffffffff16141561093357600191505b808061093e906118d4565b915050610889565b5080610987576040517f08c379a000000000000000000000000000000000000000000000000000000000815260040161097e9061163e565b60405180910390fd5b60006001905080156109a35761099e3360056110f8565b6109b6565b6109b5336109b0336105a9565b610f21565b5b5050565b6000600160008473ffffffffffffffffffffffffffffffffffffffff1673ffffffffffffffffffffffffffffffffffffffff16815260200190815260200160002060008373ffffffffffffffffffffffffffffffffffffffff1673ffffffffffffffffffffffffffffffffffffffff16815260200190815260200160002054905092915050565b600033905090565b600073ffffffffffffffffffffffffffffffffffffffff168373ffffffffffffffffffffffffffffffffffffffff161415610ab9576040517f08c379a0000000000000000000000000000000000000000000000000000000008152600401610ab0906116de565b60405180910390fd5b600073ffffffffffffffffffffffffffffffffffffffff168273ffffffffffffffffffffffffffffffffffffffff161415610b29576040517f08c379a0000000000000000000000000000000000000000000000000000000008152600401610b209061161e565b60405180910390fd5b80600160008573ffffffffffffffffffffffffffffffffffffffff1673ffffffffffffffffffffffffffffffffffffffff16815260200190815260200160002060008473ffffffffffffffffffffffffffffffffffffffff1673ffffffffffffffffffffffffffffffffffffffff168152602001908152602001600020819055508173ffffffffffffffffffffffffffffffffffffffff168373ffffffffffffffffffffffffffffffffffffffff167f8c5be1e5ebec7d5bd14f71427d1e84f3dd0314c0f7b2291e5b200ac8c7c3b92583604051610c07919061173e565b60405180910390a3505050565b6000610c2084846109ba565b90507fffffffffffffffffffffffffffffffffffffffffffffffffffffffffffffffff8114610c9a5781811015610c8c576040517f08c379a0000000000000000000000000000000000000000000000000000000008152600401610c839061165e565b60405180910390fd5b610c998484848403610a49565b5b50505050565b600073ffffffffffffffffffffffffffffffffffffffff168373ffffffffffffffffffffffffffffffffffffffff161415610d10576040517f08c379a0000000000000000000000000000000000000000000000000000000008152600401610d07906116be565b60405180910390fd5b600073ffffffffffffffffffffffffffffffffffffffff168273ffffffffffffffffffffffffffffffffffffffff161415610d80576040517f08c379a0000000000000000000000000000000000000000000000000000000008152600401610d77906115de565b60405180910390fd5b610d8b838383611258565b60008060008573ffffffffffffffffffffffffffffffffffffffff1673ffffffffffffffffffffffffffffffffffffffff16815260200190815260200160002054905081811015610e11576040517f08c379a0000000000000000000000000000000000000000000000000000000008152600401610e089061167e565b60405180910390fd5b8181036000808673ffffffffffffffffffffffffffffffffffffffff1673ffffffffffffffffffffffffffffffffffffffff16815260200190815260200160002081905550816000808573ffffffffffffffffffffffffffffffffffffffff1673ffffffffffffffffffffffffffffffffffffffff1681526020019081526020016000206000828254610ea49190611790565b925050819055508273ffffffffffffffffffffffffffffffffffffffff168473ffffffffffffffffffffffffffffffffffffffff167fddf252ad1be2c89b69c2b068fc378daa952ba7f163c4a11628f55a4df523b3ef84604051610f08919061173e565b60405180910390a3610f1b84848461125d565b50505050565b600073ffffffffffffffffffffffffffffffffffffffff168273ffffffffffffffffffffffffffffffffffffffff161415610f91576040517f08c379a0000000000000000000000000000000000000000000000000000000008152600401610f889061169e565b60405180910390fd5b610f9d82600083611258565b60008060008473ffffffffffffffffffffffffffffffffffffffff1673ffffffffffffffffffffffffffffffffffffffff16815260200190815260200160002054905081811015611023576040517f08c379a000000000000000000000000000000000000000000000000000000000815260040161101a906115fe565b60405180910390fd5b8181036000808573ffffffffffffffffffffffffffffffffffffffff1673ffffffffffffffffffffffffffffffffffffffff16815260200190815260200160002081905550816002600082825461107a91906117e6565b92505081905550600073ffffffffffffffffffffffffffffffffffffffff168373ffffffffffffffffffffffffffffffffffffffff167fddf252ad1be2c89b69c2b068fc378daa952ba7f163c4a11628f55a4df523b3ef846040516110df919061173e565b60405180910390a36110f38360008461125d565b505050565b600073ffffffffffffffffffffffffffffffffffffffff168273ffffffffffffffffffffffffffffffffffffffff161415611168576040517f08c379a000000000000000000000000000000000000000000000000000000000815260040161115f9061171e565b60405180910390fd5b61117460008383611258565b80600260008282546111869190611790565b92505081905550806000808473ffffffffffffffffffffffffffffffffffffffff1673ffffffffffffffffffffffffffffffffffffffff16815260200190815260200160002060008282546111db9190611790565b925050819055508173ffffffffffffffffffffffffffffffffffffffff16600073ffffffffffffffffffffffffffffffffffffffff167fddf252ad1be2c89b69c2b068fc378daa952ba7f163c4a11628f55a4df523b3ef83604051611240919061173e565b60405180910390a36112546000838361125d565b5050565b505050565b505050565b60008135905061127181611ca5565b92915050565b60008135905061128681611cbc565b92915050565b60008135905061129b81611cd3565b92915050565b6000602082840312156112b357600080fd5b60006112c184828501611262565b91505092915050565b600080604083850312156112dd57600080fd5b60006112eb85828601611262565b92505060206112fc85828601611262565b9150509250929050565b60008060006060848603121561131b57600080fd5b600061132986828701611262565b935050602061133a86828701611262565b925050604061134b86828701611277565b9150509250925092565b6000806040838503121561136857600080fd5b600061137685828601611262565b925050602061138785828601611277565b9150509250929050565b6000602082840312156113a357600080fd5b60006113b18482850161128c565b91505092915050565b6113c38161182c565b82525050565b60006113d482611774565b6113de818561177f565b93506113ee81856020860161186f565b6113f78161197b565b840191505092915050565b600061140f60238361177f565b915061141a8261198c565b604082019050919050565b600061143260228361177f565b915061143d826119db565b604082019050919050565b600061145560228361177f565b915061146082611a2a565b604082019050919050565b600061147860218361177f565b915061148382611a79565b604082019050919050565b600061149b601d8361177f565b91506114a682611ac8565b602082019050919050565b60006114be60268361177f565b91506114c982611af1565b604082019050919050565b60006114e160218361177f565b91506114ec82611b40565b604082019050919050565b600061150460258361177f565b915061150f82611b8f565b604082019050919050565b600061152760248361177f565b915061153282611bde565b604082019050919050565b600061154a60258361177f565b915061155582611c2d565b604082019050919050565b600061156d601f8361177f565b915061157882611c7c565b602082019050919050565b61158c81611858565b82525050565b61159b81611862565b82525050565b60006020820190506115b660008301846113ba565b92915050565b600060208201905081810360008301526115d681846113c9565b905092915050565b600060208201905081810360008301526115f781611402565b9050919050565b6000602082019050818103600083015261161781611425565b9050919050565b6000602082019050818103600083015261163781611448565b9050919050565b600060208201905081810360008301526116578161146b565b9050919050565b600060208201905081810360008301526116778161148e565b9050919050565b60006020820190508181036000830152611697816114b1565b9050919050565b600060208201905081810360008301526116b7816114d4565b9050919050565b600060208201905081810360008301526116d7816114f7565b9050919050565b600060208201905081810360008301526116f78161151a565b9050919050565b600060208201905081810360008301526117178161153d565b9050919050565b6000602082019050818103600083015261173781611560565b9050919050565b60006020820190506117536000830184611583565b92915050565b600060208201905061176e6000830184611592565b92915050565b600081519050919050565b600082825260208201905092915050565b600061179b82611858565b91506117a683611858565b9250827fffffffffffffffffffffffffffffffffffffffffffffffffffffffffffffffff038211156117db576117da61191d565b5b828201905092915050565b60006117f182611858565b91506117fc83611858565b92508282101561180f5761180e61191d565b5b828203905092915050565b600061182582611838565b9050919050565b60008115159050919050565b600073ffffffffffffffffffffffffffffffffffffffff82169050919050565b6000819050919050565b600060ff82169050919050565b60005b8381101561188d578082015181840152602081019050611872565b8381111561189c576000848401525b50505050565b600060028204905060018216806118ba57607f821691505b602082108114156118ce576118cd61194c565b5b50919050565b60006118df82611858565b91507fffffffffffffffffffffffffffffffffffffffffffffffffffffffffffffffff8214156119125761191161191d565b5b600182019050919050565b7f4e487b7100000000000000000000000000000000000000000000000000000000600052601160045260246000fd5b7f4e487b7100000000000000000000000000000000000000000000000000000000600052602260045260246000fd5b6000601f19601f8301169050919050565b7f45524332303a207472616e7366657220746f20746865207a65726f206164647260008201527f6573730000000000000000000000000000000000000000000000000000000000602082015250565b7f45524332303a206275726e20616d6f756e7420657863656564732062616c616e60008201527f6365000000000000000000000000000000000000000000000000000000000000602082015250565b7f45524332303a20617070726f766520746f20746865207a65726f20616464726560008201527f7373000000000000000000000000000000000000000000000000000000000000602082015250565b7f596f7520686176656e277420656e746572656420796f75722074696d657a6f6e60008201527f6500000000000000000000000000000000000000000000000000000000000000602082015250565b7f45524332303a20696e73756666696369656e7420616c6c6f77616e6365000000600082015250565b7f45524332303a207472616e7366657220616d6f756e742065786365656473206260008201527f616c616e63650000000000000000000000000000000000000000000000000000602082015250565b7f45524332303a206275726e2066726f6d20746865207a65726f2061646472657360008201527f7300000000000000000000000000000000000000000000000000000000000000602082015250565b7f45524332303a207472616e736665722066726f6d20746865207a65726f20616460008201527f6472657373000000000000000000000000000000000000000000000000000000602082015250565b7f45524332303a20617070726f76652066726f6d20746865207a65726f2061646460008201527f7265737300000000000000000000000000000000000000000000000000000000602082015250565b7f45524332303a2064656372656173656420616c6c6f77616e63652062656c6f7760008201527f207a65726f000000000000000000000000000000000000000000000000000000602082015250565b7f45524332303a206d696e7420746f20746865207a65726f206164647265737300600082015250565b611cae8161181a565b8114611cb957600080fd5b50565b611cc581611858565b8114611cd057600080fd5b50565b611cdc81611862565b8114611ce757600080fd5b5056fea2646970667358221220b40502e1782f3dadcea8fa4fa2ea1dcdcb933bb12877256bb0d2cdea6115477064736f6c63430008040033",
  "linkReferences": {},
  "deployedLinkReferences": {}
}